{
  "_format": "hh-sol-artifact-1",
  "contractName": "MegaFansNFT",
  "sourceName": "contracts/MegaFansNFT.sol",
  "abi": [
    {
      "inputs": [],
      "stateMutability": "nonpayable",
      "type": "constructor"
    },
    {
      "anonymous": false,
      "inputs": [
        {
          "indexed": true,
          "internalType": "address",
          "name": "owner",
          "type": "address"
        },
        {
          "indexed": true,
          "internalType": "address",
          "name": "approved",
          "type": "address"
        },
        {
          "indexed": true,
          "internalType": "uint256",
          "name": "tokenId",
          "type": "uint256"
        }
      ],
      "name": "Approval",
      "type": "event"
    },
    {
      "anonymous": false,
      "inputs": [
        {
          "indexed": true,
          "internalType": "address",
          "name": "owner",
          "type": "address"
        },
        {
          "indexed": true,
          "internalType": "address",
          "name": "operator",
          "type": "address"
        },
        {
          "indexed": false,
          "internalType": "bool",
          "name": "approved",
          "type": "bool"
        }
      ],
      "name": "ApprovalForAll",
      "type": "event"
    },
    {
      "anonymous": false,
      "inputs": [
        {
          "indexed": true,
          "internalType": "bytes32",
          "name": "role",
          "type": "bytes32"
        },
        {
          "indexed": true,
          "internalType": "bytes32",
          "name": "previousAdminRole",
          "type": "bytes32"
        },
        {
          "indexed": true,
          "internalType": "bytes32",
          "name": "newAdminRole",
          "type": "bytes32"
        }
      ],
      "name": "RoleAdminChanged",
      "type": "event"
    },
    {
      "anonymous": false,
      "inputs": [
        {
          "indexed": true,
          "internalType": "bytes32",
          "name": "role",
          "type": "bytes32"
        },
        {
          "indexed": true,
          "internalType": "address",
          "name": "account",
          "type": "address"
        },
        {
          "indexed": true,
          "internalType": "address",
          "name": "sender",
          "type": "address"
        }
      ],
      "name": "RoleGranted",
      "type": "event"
    },
    {
      "anonymous": false,
      "inputs": [
        {
          "indexed": true,
          "internalType": "bytes32",
          "name": "role",
          "type": "bytes32"
        },
        {
          "indexed": true,
          "internalType": "address",
          "name": "account",
          "type": "address"
        },
        {
          "indexed": true,
          "internalType": "address",
          "name": "sender",
          "type": "address"
        }
      ],
      "name": "RoleRevoked",
      "type": "event"
    },
    {
      "anonymous": false,
      "inputs": [
        {
          "indexed": true,
          "internalType": "address",
          "name": "from",
          "type": "address"
        },
        {
          "indexed": true,
          "internalType": "address",
          "name": "to",
          "type": "address"
        },
        {
          "indexed": true,
          "internalType": "uint256",
          "name": "tokenId",
          "type": "uint256"
        }
      ],
      "name": "Transfer",
      "type": "event"
    },
    {
      "inputs": [],
      "name": "DEFAULT_ADMIN_ROLE",
      "outputs": [
        {
          "internalType": "bytes32",
          "name": "",
          "type": "bytes32"
        }
      ],
      "stateMutability": "view",
      "type": "function"
    },
    {
      "inputs": [],
      "name": "MINTER_ROLE",
      "outputs": [
        {
          "internalType": "bytes32",
          "name": "",
          "type": "bytes32"
        }
      ],
      "stateMutability": "view",
      "type": "function"
    },
    {
      "inputs": [
        {
          "internalType": "address",
          "name": "to",
          "type": "address"
        },
        {
          "internalType": "uint256",
          "name": "tokenId",
          "type": "uint256"
        }
      ],
      "name": "approve",
      "outputs": [],
      "stateMutability": "nonpayable",
      "type": "function"
    },
    {
      "inputs": [
        {
          "internalType": "address",
          "name": "owner",
          "type": "address"
        }
      ],
      "name": "balanceOf",
      "outputs": [
        {
          "internalType": "uint256",
          "name": "",
          "type": "uint256"
        }
      ],
      "stateMutability": "view",
      "type": "function"
    },
    {
      "inputs": [
        {
          "internalType": "uint256",
          "name": "tokenId",
          "type": "uint256"
        }
      ],
      "name": "getApproved",
      "outputs": [
        {
          "internalType": "address",
          "name": "",
          "type": "address"
        }
      ],
      "stateMutability": "view",
      "type": "function"
    },
    {
      "inputs": [
        {
          "internalType": "bytes32",
          "name": "role",
          "type": "bytes32"
        }
      ],
      "name": "getRoleAdmin",
      "outputs": [
        {
          "internalType": "bytes32",
          "name": "",
          "type": "bytes32"
        }
      ],
      "stateMutability": "view",
      "type": "function"
    },
    {
      "inputs": [
        {
          "internalType": "bytes32",
          "name": "role",
          "type": "bytes32"
        },
        {
          "internalType": "address",
          "name": "account",
          "type": "address"
        }
      ],
      "name": "grantRole",
      "outputs": [],
      "stateMutability": "nonpayable",
      "type": "function"
    },
    {
      "inputs": [
        {
          "internalType": "bytes32",
          "name": "role",
          "type": "bytes32"
        },
        {
          "internalType": "address",
          "name": "account",
          "type": "address"
        }
      ],
      "name": "hasRole",
      "outputs": [
        {
          "internalType": "bool",
          "name": "",
          "type": "bool"
        }
      ],
      "stateMutability": "view",
      "type": "function"
    },
    {
      "inputs": [
        {
          "internalType": "address",
          "name": "owner",
          "type": "address"
        },
        {
          "internalType": "address",
          "name": "operator",
          "type": "address"
        }
      ],
      "name": "isApprovedForAll",
      "outputs": [
        {
          "internalType": "bool",
          "name": "",
          "type": "bool"
        }
      ],
      "stateMutability": "view",
      "type": "function"
    },
    {
      "inputs": [],
      "name": "name",
      "outputs": [
        {
          "internalType": "string",
          "name": "",
          "type": "string"
        }
      ],
      "stateMutability": "view",
      "type": "function"
    },
    {
      "inputs": [
        {
          "internalType": "uint256",
          "name": "tokenId",
          "type": "uint256"
        }
      ],
      "name": "ownerOf",
      "outputs": [
        {
          "internalType": "address",
          "name": "",
          "type": "address"
        }
      ],
      "stateMutability": "view",
      "type": "function"
    },
    {
      "inputs": [
        {
          "internalType": "bytes32",
          "name": "role",
          "type": "bytes32"
        },
        {
          "internalType": "address",
          "name": "account",
          "type": "address"
        }
      ],
      "name": "renounceRole",
      "outputs": [],
      "stateMutability": "nonpayable",
      "type": "function"
    },
    {
      "inputs": [
        {
          "internalType": "bytes32",
          "name": "role",
          "type": "bytes32"
        },
        {
          "internalType": "address",
          "name": "account",
          "type": "address"
        }
      ],
      "name": "revokeRole",
      "outputs": [],
      "stateMutability": "nonpayable",
      "type": "function"
    },
    {
      "inputs": [
        {
          "internalType": "address",
          "name": "to",
          "type": "address"
        },
        {
          "internalType": "string",
          "name": "metadataURI",
          "type": "string"
        }
      ],
      "name": "safeMint",
      "outputs": [
        {
          "internalType": "uint256",
          "name": "",
          "type": "uint256"
        }
      ],
      "stateMutability": "nonpayable",
      "type": "function"
    },
    {
      "inputs": [
        {
          "internalType": "address",
          "name": "from",
          "type": "address"
        },
        {
          "internalType": "address",
          "name": "to",
          "type": "address"
        },
        {
          "internalType": "uint256",
          "name": "tokenId",
          "type": "uint256"
        }
      ],
      "name": "safeTransferFrom",
      "outputs": [],
      "stateMutability": "nonpayable",
      "type": "function"
    },
    {
      "inputs": [
        {
          "internalType": "address",
          "name": "from",
          "type": "address"
        },
        {
          "internalType": "address",
          "name": "to",
          "type": "address"
        },
        {
          "internalType": "uint256",
          "name": "tokenId",
          "type": "uint256"
        },
        {
          "internalType": "bytes",
          "name": "_data",
          "type": "bytes"
        }
      ],
      "name": "safeTransferFrom",
      "outputs": [],
      "stateMutability": "nonpayable",
      "type": "function"
    },
    {
      "inputs": [
        {
          "internalType": "address",
          "name": "operator",
          "type": "address"
        },
        {
          "internalType": "bool",
          "name": "approved",
          "type": "bool"
        }
      ],
      "name": "setApprovalForAll",
      "outputs": [],
      "stateMutability": "nonpayable",
      "type": "function"
    },
    {
      "inputs": [
        {
          "internalType": "bytes4",
          "name": "interfaceId",
          "type": "bytes4"
        }
      ],
      "name": "supportsInterface",
      "outputs": [
        {
          "internalType": "bool",
          "name": "",
          "type": "bool"
        }
      ],
      "stateMutability": "view",
      "type": "function"
    },
    {
      "inputs": [],
      "name": "symbol",
      "outputs": [
        {
          "internalType": "string",
          "name": "",
          "type": "string"
        }
      ],
      "stateMutability": "view",
      "type": "function"
    },
    {
      "inputs": [
        {
          "internalType": "uint256",
          "name": "tokenId",
          "type": "uint256"
        }
      ],
      "name": "tokenURI",
      "outputs": [
        {
          "internalType": "string",
          "name": "",
          "type": "string"
        }
      ],
      "stateMutability": "view",
      "type": "function"
    },
    {
      "inputs": [
        {
          "internalType": "address",
          "name": "from",
          "type": "address"
        },
        {
          "internalType": "address",
          "name": "to",
          "type": "address"
        },
        {
          "internalType": "uint256",
          "name": "tokenId",
          "type": "uint256"
        }
      ],
      "name": "transferFrom",
      "outputs": [],
      "stateMutability": "nonpayable",
      "type": "function"
    }
  ],
  "bytecode": "0x60806040523480156200001157600080fd5b506040518060400160405280600c81526020017f4d65676146616e73204e465400000000000000000000000000000000000000008152506040518060400160405280600281526020017f524100000000000000000000000000000000000000000000000000000000000081525081600090805190602001906200009692919062000264565b508060019080519060200190620000af92919062000264565b505050620000c76000801b33620000ff60201b60201c565b620000f97f9f2df0fed2c77648de5860a4cc508cd0818c85b8b8a1ab4ceeef8d981c8956a633620000ff60201b60201c565b62000379565b620001118282620001f160201b60201c565b620001ed5760016007600084815260200190815260200160002060000160008373ffffffffffffffffffffffffffffffffffffffff1673ffffffffffffffffffffffffffffffffffffffff16815260200190815260200160002060006101000a81548160ff021916908315150217905550620001926200025c60201b60201c565b73ffffffffffffffffffffffffffffffffffffffff168173ffffffffffffffffffffffffffffffffffffffff16837f2f8788117e7eff1d82e926ec794901d17c78024a50270940304540a733656f0d60405160405180910390a45b5050565b60006007600084815260200190815260200160002060000160008373ffffffffffffffffffffffffffffffffffffffff1673ffffffffffffffffffffffffffffffffffffffff16815260200190815260200160002060009054906101000a900460ff16905092915050565b600033905090565b828054620002729062000314565b90600052602060002090601f016020900481019282620002965760008555620002e2565b82601f10620002b157805160ff1916838001178555620002e2565b82800160010185558215620002e2579182015b82811115620002e1578251825591602001919060010190620002c4565b5b509050620002f19190620002f5565b5090565b5b8082111562000310576000816000905550600101620002f6565b5090565b600060028204905060018216806200032d57607f821691505b602082108114156200034457620003436200034a565b5b50919050565b7f4e487b7100000000000000000000000000000000000000000000000000000000600052602260045260246000fd5b61382f80620003896000396000f3fe608060405234801561001057600080fd5b50600436106101375760003560e01c806370a08231116100b8578063b88d4fde1161007c578063b88d4fde1461035e578063c87b56dd1461037a578063d204c45e146103aa578063d5391393146103da578063d547741f146103f8578063e985e9c51461041457610137565b806370a08231146102a657806391d14854146102d657806395d89b4114610306578063a217fddf14610324578063a22cb4651461034257610137565b8063248a9ca3116100ff578063248a9ca3146101f25780632f2ff15d1461022257806336568abe1461023e57806342842e0e1461025a5780636352211e1461027657610137565b806301ffc9a71461013c57806306fdde031461016c578063081812fc1461018a578063095ea7b3146101ba57806323b872dd146101d6575b600080fd5b6101566004803603810190610151919061263d565b610444565b6040516101639190612b18565b60405180910390f35b610174610456565b6040516101819190612b4e565b60405180910390f35b6101a4600480360381019061019f919061268f565b6104e8565b6040516101b19190612ab1565b60405180910390f35b6101d460048036038101906101cf919061259c565b61056d565b005b6101f060048036038101906101eb9190612442565b610685565b005b61020c600480360381019061020791906125d8565b6106e5565b6040516102199190612b33565b60405180910390f35b61023c60048036038101906102379190612601565b610705565b005b61025860048036038101906102539190612601565b610726565b005b610274600480360381019061026f9190612442565b6107a9565b005b610290600480360381019061028b919061268f565b6107c9565b60405161029d9190612ab1565b60405180910390f35b6102c060048036038101906102bb91906123dd565b61087b565b6040516102cd9190612db0565b60405180910390f35b6102f060048036038101906102eb9190612601565b610933565b6040516102fd9190612b18565b60405180910390f35b61030e61099e565b60405161031b9190612b4e565b60405180910390f35b61032c610a30565b6040516103399190612b33565b60405180910390f35b61035c6004803603810190610357919061250c565b610a37565b005b61037860048036038101906103739190612491565b610a4d565b005b610394600480360381019061038f919061268f565b610aaf565b6040516103a19190612b4e565b60405180910390f35b6103c460048036038101906103bf9190612548565b610c01565b6040516103d19190612db0565b60405180910390f35b6103e2610c64565b6040516103ef9190612b33565b60405180910390f35b610412600480360381019061040d9190612601565b610c88565b005b61042e60048036038101906104299190612406565b610ca9565b60405161043b9190612b18565b60405180910390f35b600061044f82610d3d565b9050919050565b60606000805461046590613094565b80601f016020809104026020016040519081016040528092919081815260200182805461049190613094565b80156104de5780601f106104b3576101008083540402835291602001916104de565b820191906000526020600020905b8154815290600101906020018083116104c157829003601f168201915b5050505050905090565b60006104f382610db7565b610532576040517f08c379a000000000000000000000000000000000000000000000000000000000815260040161052990612d10565b60405180910390fd5b6004600083815260200190815260200160002060009054906101000a900473ffffffffffffffffffffffffffffffffffffffff169050919050565b6000610578826107c9565b90508073ffffffffffffffffffffffffffffffffffffffff168373ffffffffffffffffffffffffffffffffffffffff1614156105e9576040517f08c379a00000000000000000000000000000000000000000000000000000000081526004016105e090612d50565b60405180910390fd5b8073ffffffffffffffffffffffffffffffffffffffff16610608610e23565b73ffffffffffffffffffffffffffffffffffffffff161480610637575061063681610631610e23565b610ca9565b5b610676576040517f08c379a000000000000000000000000000000000000000000000000000000000815260040161066d90612c50565b60405180910390fd5b6106808383610e2b565b505050565b610696610690610e23565b82610ee4565b6106d5576040517f08c379a00000000000000000000000000000000000000000000000000000000081526004016106cc90612d70565b60405180910390fd5b6106e0838383610fc2565b505050565b600060076000838152602001908152602001600020600101549050919050565b61070e826106e5565b61071781611229565b610721838361123d565b505050565b61072e610e23565b73ffffffffffffffffffffffffffffffffffffffff168173ffffffffffffffffffffffffffffffffffffffff161461079b576040517f08c379a000000000000000000000000000000000000000000000000000000000815260040161079290612d90565b60405180910390fd5b6107a5828261131e565b5050565b6107c483838360405180602001604052806000815250610a4d565b505050565b6000806002600084815260200190815260200160002060009054906101000a900473ffffffffffffffffffffffffffffffffffffffff169050600073ffffffffffffffffffffffffffffffffffffffff168173ffffffffffffffffffffffffffffffffffffffff161415610872576040517f08c379a000000000000000000000000000000000000000000000000000000000815260040161086990612c90565b60405180910390fd5b80915050919050565b60008073ffffffffffffffffffffffffffffffffffffffff168273ffffffffffffffffffffffffffffffffffffffff1614156108ec576040517f08c379a00000000000000000000000000000000000000000000000000000000081526004016108e390612c70565b60405180910390fd5b600360008373ffffffffffffffffffffffffffffffffffffffff1673ffffffffffffffffffffffffffffffffffffffff168152602001908152602001600020549050919050565b60006007600084815260200190815260200160002060000160008373ffffffffffffffffffffffffffffffffffffffff1673ffffffffffffffffffffffffffffffffffffffff16815260200190815260200160002060009054906101000a900460ff16905092915050565b6060600180546109ad90613094565b80601f01602080910402602001604051908101604052809291908181526020018280546109d990613094565b8015610a265780601f106109fb57610100808354040283529160200191610a26565b820191906000526020600020905b815481529060010190602001808311610a0957829003601f168201915b5050505050905090565b6000801b81565b610a49610a42610e23565b8383611400565b5050565b610a5e610a58610e23565b83610ee4565b610a9d576040517f08c379a0000000000000000000000000000000000000000000000000000000008152600401610a9490612d70565b60405180910390fd5b610aa98484848461156d565b50505050565b6060610aba82610db7565b610af9576040517f08c379a0000000000000000000000000000000000000000000000000000000008152600401610af090612cf0565b60405180910390fd5b6000600660008481526020019081526020016000208054610b1990613094565b80601f0160208091040260200160405190810160405280929190818152602001828054610b4590613094565b8015610b925780601f10610b6757610100808354040283529160200191610b92565b820191906000526020600020905b815481529060010190602001808311610b7557829003601f168201915b505050505090506000610ba36115c9565b9050600081511415610bb9578192505050610bfc565b600082511115610bee578082604051602001610bd6929190612a53565b60405160208183030381529060405292505050610bfc565b610bf784611606565b925050505b919050565b60007f9f2df0fed2c77648de5860a4cc508cd0818c85b8b8a1ab4ceeef8d981c8956a6610c2d81611229565b610c3760086116ad565b6000610c4360086116c3565b9050610c4f85826116d1565b610c5981856116ef565b809250505092915050565b7f9f2df0fed2c77648de5860a4cc508cd0818c85b8b8a1ab4ceeef8d981c8956a681565b610c91826106e5565b610c9a81611229565b610ca4838361131e565b505050565b6000600560008473ffffffffffffffffffffffffffffffffffffffff1673ffffffffffffffffffffffffffffffffffffffff16815260200190815260200160002060008373ffffffffffffffffffffffffffffffffffffffff1673ffffffffffffffffffffffffffffffffffffffff16815260200190815260200160002060009054906101000a900460ff16905092915050565b60007f7965db0b000000000000000000000000000000000000000000000000000000007bffffffffffffffffffffffffffffffffffffffffffffffffffffffff1916827bffffffffffffffffffffffffffffffffffffffffffffffffffffffff19161480610db05750610daf82611763565b5b9050919050565b60008073ffffffffffffffffffffffffffffffffffffffff166002600084815260200190815260200160002060009054906101000a900473ffffffffffffffffffffffffffffffffffffffff1673ffffffffffffffffffffffffffffffffffffffff1614159050919050565b600033905090565b816004600083815260200190815260200160002060006101000a81548173ffffffffffffffffffffffffffffffffffffffff021916908373ffffffffffffffffffffffffffffffffffffffff160217905550808273ffffffffffffffffffffffffffffffffffffffff16610e9e836107c9565b73ffffffffffffffffffffffffffffffffffffffff167f8c5be1e5ebec7d5bd14f71427d1e84f3dd0314c0f7b2291e5b200ac8c7c3b92560405160405180910390a45050565b6000610eef82610db7565b610f2e576040517f08c379a0000000000000000000000000000000000000000000000000000000008152600401610f2590612c30565b60405180910390fd5b6000610f39836107c9565b90508073ffffffffffffffffffffffffffffffffffffffff168473ffffffffffffffffffffffffffffffffffffffff161480610f7b5750610f7a8185610ca9565b5b80610fb957508373ffffffffffffffffffffffffffffffffffffffff16610fa1846104e8565b73ffffffffffffffffffffffffffffffffffffffff16145b91505092915050565b8273ffffffffffffffffffffffffffffffffffffffff16610fe2826107c9565b73ffffffffffffffffffffffffffffffffffffffff1614611038576040517f08c379a000000000000000000000000000000000000000000000000000000000815260040161102f90612bb0565b60405180910390fd5b600073ffffffffffffffffffffffffffffffffffffffff168273ffffffffffffffffffffffffffffffffffffffff1614156110a8576040517f08c379a000000000000000000000000000000000000000000000000000000000815260040161109f90612bf0565b60405180910390fd5b6110b3838383611845565b6110be600082610e2b565b6001600360008573ffffffffffffffffffffffffffffffffffffffff1673ffffffffffffffffffffffffffffffffffffffff168152602001908152602001600020600082825461110e9190612f76565b925050819055506001600360008473ffffffffffffffffffffffffffffffffffffffff1673ffffffffffffffffffffffffffffffffffffffff16815260200190815260200160002060008282546111659190612e95565b92505081905550816002600083815260200190815260200160002060006101000a81548173ffffffffffffffffffffffffffffffffffffffff021916908373ffffffffffffffffffffffffffffffffffffffff160217905550808273ffffffffffffffffffffffffffffffffffffffff168473ffffffffffffffffffffffffffffffffffffffff167fddf252ad1be2c89b69c2b068fc378daa952ba7f163c4a11628f55a4df523b3ef60405160405180910390a461122483838361184a565b505050565b61123a81611235610e23565b61184f565b50565b6112478282610933565b61131a5760016007600084815260200190815260200160002060000160008373ffffffffffffffffffffffffffffffffffffffff1673ffffffffffffffffffffffffffffffffffffffff16815260200190815260200160002060006101000a81548160ff0219169083151502179055506112bf610e23565b73ffffffffffffffffffffffffffffffffffffffff168173ffffffffffffffffffffffffffffffffffffffff16837f2f8788117e7eff1d82e926ec794901d17c78024a50270940304540a733656f0d60405160405180910390a45b5050565b6113288282610933565b156113fc5760006007600084815260200190815260200160002060000160008373ffffffffffffffffffffffffffffffffffffffff1673ffffffffffffffffffffffffffffffffffffffff16815260200190815260200160002060006101000a81548160ff0219169083151502179055506113a1610e23565b73ffffffffffffffffffffffffffffffffffffffff168173ffffffffffffffffffffffffffffffffffffffff16837ff6391f5c32d9c69d2a47ea670b442974b53935d1edc7fd64eb21e047a839171b60405160405180910390a45b5050565b8173ffffffffffffffffffffffffffffffffffffffff168373ffffffffffffffffffffffffffffffffffffffff16141561146f576040517f08c379a000000000000000000000000000000000000000000000000000000000815260040161146690612c10565b60405180910390fd5b80600560008573ffffffffffffffffffffffffffffffffffffffff1673ffffffffffffffffffffffffffffffffffffffff16815260200190815260200160002060008473ffffffffffffffffffffffffffffffffffffffff1673ffffffffffffffffffffffffffffffffffffffff16815260200190815260200160002060006101000a81548160ff0219169083151502179055508173ffffffffffffffffffffffffffffffffffffffff168373ffffffffffffffffffffffffffffffffffffffff167f17307eab39ab6107e8899845ad3d59bd9653f200f220920489ca2b5937696c31836040516115609190612b18565b60405180910390a3505050565b611578848484610fc2565b611584848484846118ec565b6115c3576040517f08c379a00000000000000000000000000000000000000000000000000000000081526004016115ba90612b90565b60405180910390fd5b50505050565b60606040518060400160405280600781526020017f697066733a2f2f00000000000000000000000000000000000000000000000000815250905090565b606061161182610db7565b611650576040517f08c379a000000000000000000000000000000000000000000000000000000000815260040161164790612d30565b60405180910390fd5b600061165a6115c9565b9050600081511161167a57604051806020016040528060008152506116a5565b8061168484611a83565b604051602001611695929190612a53565b6040516020818303038152906040525b915050919050565b6001816000016000828254019250508190555050565b600081600001549050919050565b6116eb828260405180602001604052806000815250611c30565b5050565b6116f882610db7565b611737576040517f08c379a000000000000000000000000000000000000000000000000000000000815260040161172e90612cb0565b60405180910390fd5b8060066000848152602001908152602001600020908051906020019061175e9291906121ec565b505050565b60007f80ac58cd000000000000000000000000000000000000000000000000000000007bffffffffffffffffffffffffffffffffffffffffffffffffffffffff1916827bffffffffffffffffffffffffffffffffffffffffffffffffffffffff1916148061182e57507f5b5e139f000000000000000000000000000000000000000000000000000000007bffffffffffffffffffffffffffffffffffffffffffffffffffffffff1916827bffffffffffffffffffffffffffffffffffffffffffffffffffffffff1916145b8061183e575061183d82611c8b565b5b9050919050565b505050565b505050565b6118598282610933565b6118e85761187e8173ffffffffffffffffffffffffffffffffffffffff166014611cf5565b61188c8360001c6020611cf5565b60405160200161189d929190612a77565b6040516020818303038152906040526040517f08c379a00000000000000000000000000000000000000000000000000000000081526004016118df9190612b4e565b60405180910390fd5b5050565b600061190d8473ffffffffffffffffffffffffffffffffffffffff16611fef565b15611a76578373ffffffffffffffffffffffffffffffffffffffff1663150b7a02611936610e23565b8786866040518563ffffffff1660e01b81526004016119589493929190612acc565b602060405180830381600087803b15801561197257600080fd5b505af19250505080156119a357506040513d601f19601f820116820180604052508101906119a09190612666565b60015b611a26573d80600081146119d3576040519150601f19603f3d011682016040523d82523d6000602084013e6119d8565b606091505b50600081511415611a1e576040517f08c379a0000000000000000000000000000000000000000000000000000000008152600401611a1590612b90565b60405180910390fd5b805181602001fd5b63150b7a0260e01b7bffffffffffffffffffffffffffffffffffffffffffffffffffffffff1916817bffffffffffffffffffffffffffffffffffffffffffffffffffffffff191614915050611a7b565b600190505b949350505050565b60606000821415611acb576040518060400160405280600181526020017f30000000000000000000000000000000000000000000000000000000000000008152509050611c2b565b600082905060005b60008214611afd578080611ae6906130f7565b915050600a82611af69190612eeb565b9150611ad3565b60008167ffffffffffffffff811115611b3f577f4e487b7100000000000000000000000000000000000000000000000000000000600052604160045260246000fd5b6040519080825280601f01601f191660200182016040528015611b715781602001600182028036833780820191505090505b5090505b60008514611c2457600182611b8a9190612f76565b9150600a85611b999190613140565b6030611ba59190612e95565b60f81b818381518110611be1577f4e487b7100000000000000000000000000000000000000000000000000000000600052603260045260246000fd5b60200101907effffffffffffffffffffffffffffffffffffffffffffffffffffffffffffff1916908160001a905350600a85611c1d9190612eeb565b9450611b75565b8093505050505b919050565b611c3a8383612012565b611c4760008484846118ec565b611c86576040517f08c379a0000000000000000000000000000000000000000000000000000000008152600401611c7d90612b90565b60405180910390fd5b505050565b60007f01ffc9a7000000000000000000000000000000000000000000000000000000007bffffffffffffffffffffffffffffffffffffffffffffffffffffffff1916827bffffffffffffffffffffffffffffffffffffffffffffffffffffffff1916149050919050565b606060006002836002611d089190612f1c565b611d129190612e95565b67ffffffffffffffff811115611d51577f4e487b7100000000000000000000000000000000000000000000000000000000600052604160045260246000fd5b6040519080825280601f01601f191660200182016040528015611d835781602001600182028036833780820191505090505b5090507f300000000000000000000000000000000000000000000000000000000000000081600081518110611de1577f4e487b7100000000000000000000000000000000000000000000000000000000600052603260045260246000fd5b60200101907effffffffffffffffffffffffffffffffffffffffffffffffffffffffffffff1916908160001a9053507f780000000000000000000000000000000000000000000000000000000000000081600181518110611e6b577f4e487b7100000000000000000000000000000000000000000000000000000000600052603260045260246000fd5b60200101907effffffffffffffffffffffffffffffffffffffffffffffffffffffffffffff1916908160001a90535060006001846002611eab9190612f1c565b611eb59190612e95565b90505b6001811115611fa1577f3031323334353637383961626364656600000000000000000000000000000000600f861660108110611f1d577f4e487b7100000000000000000000000000000000000000000000000000000000600052603260045260246000fd5b1a60f81b828281518110611f5a577f4e487b7100000000000000000000000000000000000000000000000000000000600052603260045260246000fd5b60200101907effffffffffffffffffffffffffffffffffffffffffffffffffffffffffffff1916908160001a905350600485901c945080611f9a9061306a565b9050611eb8565b5060008414611fe5576040517f08c379a0000000000000000000000000000000000000000000000000000000008152600401611fdc90612b70565b60405180910390fd5b8091505092915050565b6000808273ffffffffffffffffffffffffffffffffffffffff163b119050919050565b600073ffffffffffffffffffffffffffffffffffffffff168273ffffffffffffffffffffffffffffffffffffffff161415612082576040517f08c379a000000000000000000000000000000000000000000000000000000000815260040161207990612cd0565b60405180910390fd5b61208b81610db7565b156120cb576040517f08c379a00000000000000000000000000000000000000000000000000000000081526004016120c290612bd0565b60405180910390fd5b6120d760008383611845565b6001600360008473ffffffffffffffffffffffffffffffffffffffff1673ffffffffffffffffffffffffffffffffffffffff16815260200190815260200160002060008282546121279190612e95565b92505081905550816002600083815260200190815260200160002060006101000a81548173ffffffffffffffffffffffffffffffffffffffff021916908373ffffffffffffffffffffffffffffffffffffffff160217905550808273ffffffffffffffffffffffffffffffffffffffff16600073ffffffffffffffffffffffffffffffffffffffff167fddf252ad1be2c89b69c2b068fc378daa952ba7f163c4a11628f55a4df523b3ef60405160405180910390a46121e86000838361184a565b5050565b8280546121f890613094565b90600052602060002090601f01602090048101928261221a5760008555612261565b82601f1061223357805160ff1916838001178555612261565b82800160010185558215612261579182015b82811115612260578251825591602001919060010190612245565b5b50905061226e9190612272565b5090565b5b8082111561228b576000816000905550600101612273565b5090565b60006122a261229d84612df0565b612dcb565b9050828152602081018484840111156122ba57600080fd5b6122c5848285613028565b509392505050565b60006122e06122db84612e21565b612dcb565b9050828152602081018484840111156122f857600080fd5b612303848285613028565b509392505050565b60008135905061231a81613786565b92915050565b60008135905061232f8161379d565b92915050565b600081359050612344816137b4565b92915050565b600081359050612359816137cb565b92915050565b60008151905061236e816137cb565b92915050565b600082601f83011261238557600080fd5b813561239584826020860161228f565b91505092915050565b600082601f8301126123af57600080fd5b81356123bf8482602086016122cd565b91505092915050565b6000813590506123d7816137e2565b92915050565b6000602082840312156123ef57600080fd5b60006123fd8482850161230b565b91505092915050565b6000806040838503121561241957600080fd5b60006124278582860161230b565b92505060206124388582860161230b565b9150509250929050565b60008060006060848603121561245757600080fd5b60006124658682870161230b565b93505060206124768682870161230b565b9250506040612487868287016123c8565b9150509250925092565b600080600080608085870312156124a757600080fd5b60006124b58782880161230b565b94505060206124c68782880161230b565b93505060406124d7878288016123c8565b925050606085013567ffffffffffffffff8111156124f457600080fd5b61250087828801612374565b91505092959194509250565b6000806040838503121561251f57600080fd5b600061252d8582860161230b565b925050602061253e85828601612320565b9150509250929050565b6000806040838503121561255b57600080fd5b60006125698582860161230b565b925050602083013567ffffffffffffffff81111561258657600080fd5b6125928582860161239e565b9150509250929050565b600080604083850312156125af57600080fd5b60006125bd8582860161230b565b92505060206125ce858286016123c8565b9150509250929050565b6000602082840312156125ea57600080fd5b60006125f884828501612335565b91505092915050565b6000806040838503121561261457600080fd5b600061262285828601612335565b92505060206126338582860161230b565b9150509250929050565b60006020828403121561264f57600080fd5b600061265d8482850161234a565b91505092915050565b60006020828403121561267857600080fd5b60006126868482850161235f565b91505092915050565b6000602082840312156126a157600080fd5b60006126af848285016123c8565b91505092915050565b6126c181612faa565b82525050565b6126d081612fbc565b82525050565b6126df81612fc8565b82525050565b60006126f082612e52565b6126fa8185612e68565b935061270a818560208601613037565b6127138161322d565b840191505092915050565b600061272982612e5d565b6127338185612e79565b9350612743818560208601613037565b61274c8161322d565b840191505092915050565b600061276282612e5d565b61276c8185612e8a565b935061277c818560208601613037565b80840191505092915050565b6000612795602083612e79565b91506127a08261323e565b602082019050919050565b60006127b8603283612e79565b91506127c382613267565b604082019050919050565b60006127db602583612e79565b91506127e6826132b6565b604082019050919050565b60006127fe601c83612e79565b915061280982613305565b602082019050919050565b6000612821602483612e79565b915061282c8261332e565b604082019050919050565b6000612844601983612e79565b915061284f8261337d565b602082019050919050565b6000612867602c83612e79565b9150612872826133a6565b604082019050919050565b600061288a603883612e79565b9150612895826133f5565b604082019050919050565b60006128ad602a83612e79565b91506128b882613444565b604082019050919050565b60006128d0602983612e79565b91506128db82613493565b604082019050919050565b60006128f3602e83612e79565b91506128fe826134e2565b604082019050919050565b6000612916602083612e79565b915061292182613531565b602082019050919050565b6000612939603183612e79565b91506129448261355a565b604082019050919050565b600061295c602c83612e79565b9150612967826135a9565b604082019050919050565b600061297f602f83612e79565b915061298a826135f8565b604082019050919050565b60006129a2602183612e79565b91506129ad82613647565b604082019050919050565b60006129c5603183612e79565b91506129d082613696565b604082019050919050565b60006129e8601783612e8a565b91506129f3826136e5565b601782019050919050565b6000612a0b601183612e8a565b9150612a168261370e565b601182019050919050565b6000612a2e602f83612e79565b9150612a3982613737565b604082019050919050565b612a4d8161301e565b82525050565b6000612a5f8285612757565b9150612a6b8284612757565b91508190509392505050565b6000612a82826129db565b9150612a8e8285612757565b9150612a99826129fe565b9150612aa58284612757565b91508190509392505050565b6000602082019050612ac660008301846126b8565b92915050565b6000608082019050612ae160008301876126b8565b612aee60208301866126b8565b612afb6040830185612a44565b8181036060830152612b0d81846126e5565b905095945050505050565b6000602082019050612b2d60008301846126c7565b92915050565b6000602082019050612b4860008301846126d6565b92915050565b60006020820190508181036000830152612b68818461271e565b905092915050565b60006020820190508181036000830152612b8981612788565b9050919050565b60006020820190508181036000830152612ba9816127ab565b9050919050565b60006020820190508181036000830152612bc9816127ce565b9050919050565b60006020820190508181036000830152612be9816127f1565b9050919050565b60006020820190508181036000830152612c0981612814565b9050919050565b60006020820190508181036000830152612c2981612837565b9050919050565b60006020820190508181036000830152612c498161285a565b9050919050565b60006020820190508181036000830152612c698161287d565b9050919050565b60006020820190508181036000830152612c89816128a0565b9050919050565b60006020820190508181036000830152612ca9816128c3565b9050919050565b60006020820190508181036000830152612cc9816128e6565b9050919050565b60006020820190508181036000830152612ce981612909565b9050919050565b60006020820190508181036000830152612d098161292c565b9050919050565b60006020820190508181036000830152612d298161294f565b9050919050565b60006020820190508181036000830152612d4981612972565b9050919050565b60006020820190508181036000830152612d6981612995565b9050919050565b60006020820190508181036000830152612d89816129b8565b9050919050565b60006020820190508181036000830152612da981612a21565b9050919050565b6000602082019050612dc56000830184612a44565b92915050565b6000612dd5612de6565b9050612de182826130c6565b919050565b6000604051905090565b600067ffffffffffffffff821115612e0b57612e0a6131fe565b5b612e148261322d565b9050602081019050919050565b600067ffffffffffffffff821115612e3c57612e3b6131fe565b5b612e458261322d565b9050602081019050919050565b600081519050919050565b600081519050919050565b600082825260208201905092915050565b600082825260208201905092915050565b600081905092915050565b6000612ea08261301e565b9150612eab8361301e565b9250827fffffffffffffffffffffffffffffffffffffffffffffffffffffffffffffffff03821115612ee057612edf613171565b5b828201905092915050565b6000612ef68261301e565b9150612f018361301e565b925082612f1157612f106131a0565b5b828204905092915050565b6000612f278261301e565b9150612f328361301e565b9250817fffffffffffffffffffffffffffffffffffffffffffffffffffffffffffffffff0483118215151615612f6b57612f6a613171565b5b828202905092915050565b6000612f818261301e565b9150612f8c8361301e565b925082821015612f9f57612f9e613171565b5b828203905092915050565b6000612fb582612ffe565b9050919050565b60008115159050919050565b6000819050919050565b60007fffffffff0000000000000000000000000000000000000000000000000000000082169050919050565b600073ffffffffffffffffffffffffffffffffffffffff82169050919050565b6000819050919050565b82818337600083830152505050565b60005b8381101561305557808201518184015260208101905061303a565b83811115613064576000848401525b50505050565b60006130758261301e565b9150600082141561308957613088613171565b5b600182039050919050565b600060028204905060018216806130ac57607f821691505b602082108114156130c0576130bf6131cf565b5b50919050565b6130cf8261322d565b810181811067ffffffffffffffff821117156130ee576130ed6131fe565b5b80604052505050565b60006131028261301e565b91507fffffffffffffffffffffffffffffffffffffffffffffffffffffffffffffffff82141561313557613134613171565b5b600182019050919050565b600061314b8261301e565b91506131568361301e565b925082613166576131656131a0565b5b828206905092915050565b7f4e487b7100000000000000000000000000000000000000000000000000000000600052601160045260246000fd5b7f4e487b7100000000000000000000000000000000000000000000000000000000600052601260045260246000fd5b7f4e487b7100000000000000000000000000000000000000000000000000000000600052602260045260246000fd5b7f4e487b7100000000000000000000000000000000000000000000000000000000600052604160045260246000fd5b6000601f19601f8301169050919050565b7f537472696e67733a20686578206c656e67746820696e73756666696369656e74600082015250565b7f4552433732313a207472616e7366657220746f206e6f6e20455243373231526560008201527f63656976657220696d706c656d656e7465720000000000000000000000000000602082015250565b7f4552433732313a207472616e736665722066726f6d20696e636f72726563742060008201527f6f776e6572000000000000000000000000000000000000000000000000000000602082015250565b7f4552433732313a20746f6b656e20616c7265616479206d696e74656400000000600082015250565b7f4552433732313a207472616e7366657220746f20746865207a65726f2061646460008201527f7265737300000000000000000000000000000000000000000000000000000000602082015250565b7f4552433732313a20617070726f766520746f2063616c6c657200000000000000600082015250565b7f4552433732313a206f70657261746f7220717565727920666f72206e6f6e657860008201527f697374656e7420746f6b656e0000000000000000000000000000000000000000602082015250565b7f4552433732313a20617070726f76652063616c6c6572206973206e6f74206f7760008201527f6e6572206e6f7220617070726f76656420666f7220616c6c0000000000000000602082015250565b7f4552433732313a2062616c616e636520717565727920666f7220746865207a6560008201527f726f206164647265737300000000000000000000000000000000000000000000602082015250565b7f4552433732313a206f776e657220717565727920666f72206e6f6e657869737460008201527f656e7420746f6b656e0000000000000000000000000000000000000000000000602082015250565b7f45524337323155524953746f726167653a2055524920736574206f66206e6f6e60008201527f6578697374656e7420746f6b656e000000000000000000000000000000000000602082015250565b7f4552433732313a206d696e7420746f20746865207a65726f2061646472657373600082015250565b7f45524337323155524953746f726167653a2055524920717565727920666f722060008201527f6e6f6e6578697374656e7420746f6b656e000000000000000000000000000000602082015250565b7f4552433732313a20617070726f76656420717565727920666f72206e6f6e657860008201527f697374656e7420746f6b656e0000000000000000000000000000000000000000602082015250565b7f4552433732314d657461646174613a2055524920717565727920666f72206e6f60008201527f6e6578697374656e7420746f6b656e0000000000000000000000000000000000602082015250565b7f4552433732313a20617070726f76616c20746f2063757272656e74206f776e6560008201527f7200000000000000000000000000000000000000000000000000000000000000602082015250565b7f4552433732313a207472616e736665722063616c6c6572206973206e6f74206f60008201527f776e6572206e6f7220617070726f766564000000000000000000000000000000602082015250565b7f416363657373436f6e74726f6c3a206163636f756e7420000000000000000000600082015250565b7f206973206d697373696e6720726f6c6520000000000000000000000000000000600082015250565b7f416363657373436f6e74726f6c3a2063616e206f6e6c792072656e6f756e636560008201527f20726f6c657320666f722073656c660000000000000000000000000000000000602082015250565b61378f81612faa565b811461379a57600080fd5b50565b6137a681612fbc565b81146137b157600080fd5b50565b6137bd81612fc8565b81146137c857600080fd5b50565b6137d481612fd2565b81146137df57600080fd5b50565b6137eb8161301e565b81146137f657600080fd5b5056fea2646970667358221220c0cb837b1134368af78d67e97981929decbf4ddb3cc7fe10eb37ae1cf235fdb264736f6c63430008040033",
  "linkReferences": {},
  "deployedLinkReferences": {}
}