{
  "_format": "hh-sol-artifact-1",
  "contractName": "MegaFansNFT",
  "sourceName": "contracts/MegaFansNFT.sol",
  "abi": [
    {
      "inputs": [],
      "stateMutability": "nonpayable",
      "type": "constructor"
    },
    {
      "anonymous": false,
      "inputs": [
        {
          "indexed": true,
          "internalType": "address",
          "name": "owner",
          "type": "address"
        },
        {
          "indexed": true,
          "internalType": "address",
          "name": "approved",
          "type": "address"
        },
        {
          "indexed": true,
          "internalType": "uint256",
          "name": "tokenId",
          "type": "uint256"
        }
      ],
      "name": "Approval",
      "type": "event"
    },
    {
      "anonymous": false,
      "inputs": [
        {
          "indexed": true,
          "internalType": "address",
          "name": "owner",
          "type": "address"
        },
        {
          "indexed": true,
          "internalType": "address",
          "name": "operator",
          "type": "address"
        },
        {
          "indexed": false,
          "internalType": "bool",
          "name": "approved",
          "type": "bool"
        }
      ],
      "name": "ApprovalForAll",
      "type": "event"
    },
    {
      "anonymous": false,
      "inputs": [
        {
          "indexed": true,
          "internalType": "bytes32",
          "name": "role",
          "type": "bytes32"
        },
        {
          "indexed": true,
          "internalType": "bytes32",
          "name": "previousAdminRole",
          "type": "bytes32"
        },
        {
          "indexed": true,
          "internalType": "bytes32",
          "name": "newAdminRole",
          "type": "bytes32"
        }
      ],
      "name": "RoleAdminChanged",
      "type": "event"
    },
    {
      "anonymous": false,
      "inputs": [
        {
          "indexed": true,
          "internalType": "bytes32",
          "name": "role",
          "type": "bytes32"
        },
        {
          "indexed": true,
          "internalType": "address",
          "name": "account",
          "type": "address"
        },
        {
          "indexed": true,
          "internalType": "address",
          "name": "sender",
          "type": "address"
        }
      ],
      "name": "RoleGranted",
      "type": "event"
    },
    {
      "anonymous": false,
      "inputs": [
        {
          "indexed": true,
          "internalType": "bytes32",
          "name": "role",
          "type": "bytes32"
        },
        {
          "indexed": true,
          "internalType": "address",
          "name": "account",
          "type": "address"
        },
        {
          "indexed": true,
          "internalType": "address",
          "name": "sender",
          "type": "address"
        }
      ],
      "name": "RoleRevoked",
      "type": "event"
    },
    {
      "anonymous": false,
      "inputs": [
        {
          "indexed": true,
          "internalType": "address",
          "name": "from",
          "type": "address"
        },
        {
          "indexed": true,
          "internalType": "address",
          "name": "to",
          "type": "address"
        },
        {
          "indexed": true,
          "internalType": "uint256",
          "name": "tokenId",
          "type": "uint256"
        }
      ],
      "name": "Transfer",
      "type": "event"
    },
    {
      "inputs": [],
      "name": "DEFAULT_ADMIN_ROLE",
      "outputs": [
        {
          "internalType": "bytes32",
          "name": "",
          "type": "bytes32"
        }
      ],
      "stateMutability": "view",
      "type": "function"
    },
    {
      "inputs": [],
      "name": "MINTER_ROLE",
      "outputs": [
        {
          "internalType": "bytes32",
          "name": "",
          "type": "bytes32"
        }
      ],
      "stateMutability": "view",
      "type": "function"
    },
    {
      "inputs": [
        {
          "internalType": "address",
          "name": "to",
          "type": "address"
        },
        {
          "internalType": "uint256",
          "name": "tokenId",
          "type": "uint256"
        }
      ],
      "name": "approve",
      "outputs": [],
      "stateMutability": "nonpayable",
      "type": "function"
    },
    {
      "inputs": [
        {
          "internalType": "address",
          "name": "owner",
          "type": "address"
        }
      ],
      "name": "balanceOf",
      "outputs": [
        {
          "internalType": "uint256",
          "name": "",
          "type": "uint256"
        }
      ],
      "stateMutability": "view",
      "type": "function"
    },
    {
      "inputs": [
        {
          "internalType": "uint256",
          "name": "tokenId",
          "type": "uint256"
        }
      ],
      "name": "getApproved",
      "outputs": [
        {
          "internalType": "address",
          "name": "",
          "type": "address"
        }
      ],
      "stateMutability": "view",
      "type": "function"
    },
    {
      "inputs": [
        {
          "internalType": "bytes32",
          "name": "role",
          "type": "bytes32"
        }
      ],
      "name": "getRoleAdmin",
      "outputs": [
        {
          "internalType": "bytes32",
          "name": "",
          "type": "bytes32"
        }
      ],
      "stateMutability": "view",
      "type": "function"
    },
    {
      "inputs": [
        {
          "internalType": "bytes32",
          "name": "role",
          "type": "bytes32"
        },
        {
          "internalType": "address",
          "name": "account",
          "type": "address"
        }
      ],
      "name": "grantRole",
      "outputs": [],
      "stateMutability": "nonpayable",
      "type": "function"
    },
    {
      "inputs": [
        {
          "internalType": "bytes32",
          "name": "role",
          "type": "bytes32"
        },
        {
          "internalType": "address",
          "name": "account",
          "type": "address"
        }
      ],
      "name": "hasRole",
      "outputs": [
        {
          "internalType": "bool",
          "name": "",
          "type": "bool"
        }
      ],
      "stateMutability": "view",
      "type": "function"
    },
    {
      "inputs": [
        {
          "internalType": "address",
          "name": "owner",
          "type": "address"
        },
        {
          "internalType": "address",
          "name": "operator",
          "type": "address"
        }
      ],
      "name": "isApprovedForAll",
      "outputs": [
        {
          "internalType": "bool",
          "name": "",
          "type": "bool"
        }
      ],
      "stateMutability": "view",
      "type": "function"
    },
    {
      "inputs": [],
      "name": "name",
      "outputs": [
        {
          "internalType": "string",
          "name": "",
          "type": "string"
        }
      ],
      "stateMutability": "view",
      "type": "function"
    },
    {
      "inputs": [
        {
          "internalType": "uint256",
          "name": "tokenId",
          "type": "uint256"
        }
      ],
      "name": "ownerOf",
      "outputs": [
        {
          "internalType": "address",
          "name": "",
          "type": "address"
        }
      ],
      "stateMutability": "view",
      "type": "function"
    },
    {
      "inputs": [
        {
          "internalType": "bytes32",
          "name": "role",
          "type": "bytes32"
        },
        {
          "internalType": "address",
          "name": "account",
          "type": "address"
        }
      ],
      "name": "renounceRole",
      "outputs": [],
      "stateMutability": "nonpayable",
      "type": "function"
    },
    {
      "inputs": [
        {
          "internalType": "bytes32",
          "name": "role",
          "type": "bytes32"
        },
        {
          "internalType": "address",
          "name": "account",
          "type": "address"
        }
      ],
      "name": "revokeRole",
      "outputs": [],
      "stateMutability": "nonpayable",
      "type": "function"
    },
    {
      "inputs": [
        {
          "internalType": "address",
          "name": "to",
          "type": "address"
        },
        {
          "internalType": "string",
          "name": "metadataURI",
          "type": "string"
        }
      ],
      "name": "safeMint",
      "outputs": [
        {
          "internalType": "uint256",
          "name": "",
          "type": "uint256"
        }
      ],
      "stateMutability": "nonpayable",
      "type": "function"
    },
    {
      "inputs": [
        {
          "internalType": "address",
          "name": "from",
          "type": "address"
        },
        {
          "internalType": "address",
          "name": "to",
          "type": "address"
        },
        {
          "internalType": "uint256",
          "name": "tokenId",
          "type": "uint256"
        }
      ],
      "name": "safeTransferFrom",
      "outputs": [],
      "stateMutability": "nonpayable",
      "type": "function"
    },
    {
      "inputs": [
        {
          "internalType": "address",
          "name": "from",
          "type": "address"
        },
        {
          "internalType": "address",
          "name": "to",
          "type": "address"
        },
        {
          "internalType": "uint256",
          "name": "tokenId",
          "type": "uint256"
        },
        {
          "internalType": "bytes",
          "name": "_data",
          "type": "bytes"
        }
      ],
      "name": "safeTransferFrom",
      "outputs": [],
      "stateMutability": "nonpayable",
      "type": "function"
    },
    {
      "inputs": [
        {
          "internalType": "address",
          "name": "operator",
          "type": "address"
        },
        {
          "internalType": "bool",
          "name": "approved",
          "type": "bool"
        }
      ],
      "name": "setApprovalForAll",
      "outputs": [],
      "stateMutability": "nonpayable",
      "type": "function"
    },
    {
      "inputs": [
        {
          "internalType": "bytes4",
          "name": "interfaceId",
          "type": "bytes4"
        }
      ],
      "name": "supportsInterface",
      "outputs": [
        {
          "internalType": "bool",
          "name": "",
          "type": "bool"
        }
      ],
      "stateMutability": "view",
      "type": "function"
    },
    {
      "inputs": [],
      "name": "symbol",
      "outputs": [
        {
          "internalType": "string",
          "name": "",
          "type": "string"
        }
      ],
      "stateMutability": "view",
      "type": "function"
    },
    {
      "inputs": [
        {
          "internalType": "uint256",
          "name": "tokenId",
          "type": "uint256"
        }
      ],
      "name": "tokenURI",
      "outputs": [
        {
          "internalType": "string",
          "name": "",
          "type": "string"
        }
      ],
      "stateMutability": "view",
      "type": "function"
    },
    {
      "inputs": [
        {
          "internalType": "address",
          "name": "from",
          "type": "address"
        },
        {
          "internalType": "address",
          "name": "to",
          "type": "address"
        },
        {
          "internalType": "uint256",
          "name": "tokenId",
          "type": "uint256"
        }
      ],
      "name": "transferFrom",
      "outputs": [],
      "stateMutability": "nonpayable",
      "type": "function"
    }
  ],
  "bytecode": "0x60806040523480156200001157600080fd5b506040518060400160405280600c81526020017f4d65676146616e73204e465400000000000000000000000000000000000000008152506040518060400160405280600281526020017f524100000000000000000000000000000000000000000000000000000000000081525081600090805190602001906200009692919062000264565b508060019080519060200190620000af92919062000264565b505050620000c76000801b33620000ff60201b60201c565b620000f97f9f2df0fed2c77648de5860a4cc508cd0818c85b8b8a1ab4ceeef8d981c8956a633620000ff60201b60201c565b62000379565b620001118282620001f160201b60201c565b620001ed5760016007600084815260200190815260200160002060000160008373ffffffffffffffffffffffffffffffffffffffff1673ffffffffffffffffffffffffffffffffffffffff16815260200190815260200160002060006101000a81548160ff021916908315150217905550620001926200025c60201b60201c565b73ffffffffffffffffffffffffffffffffffffffff168173ffffffffffffffffffffffffffffffffffffffff16837f2f8788117e7eff1d82e926ec794901d17c78024a50270940304540a733656f0d60405160405180910390a45b5050565b60006007600084815260200190815260200160002060000160008373ffffffffffffffffffffffffffffffffffffffff1673ffffffffffffffffffffffffffffffffffffffff16815260200190815260200160002060009054906101000a900460ff16905092915050565b600033905090565b828054620002729062000314565b90600052602060002090601f016020900481019282620002965760008555620002e2565b82601f10620002b157805160ff1916838001178555620002e2565b82800160010185558215620002e2579182015b82811115620002e1578251825591602001919060010190620002c4565b5b509050620002f19190620002f5565b5090565b5b8082111562000310576000816000905550600101620002f6565b5090565b600060028204905060018216806200032d57607f821691505b602082108114156200034457620003436200034a565b5b50919050565b7f4e487b7100000000000000000000000000000000000000000000000000000000600052602260045260246000fd5b6139a180620003896000396000f3fe608060405234801561001057600080fd5b50600436106101375760003560e01c806370a08231116100b8578063b88d4fde1161007c578063b88d4fde1461035e578063c87b56dd1461037a578063d204c45e146103aa578063d5391393146103da578063d547741f146103f8578063e985e9c51461041457610137565b806370a08231146102a657806391d14854146102d657806395d89b4114610306578063a217fddf14610324578063a22cb4651461034257610137565b8063248a9ca3116100ff578063248a9ca3146101f25780632f2ff15d1461022257806336568abe1461023e57806342842e0e1461025a5780636352211e1461027657610137565b806301ffc9a71461013c57806306fdde031461016c578063081812fc1461018a578063095ea7b3146101ba57806323b872dd146101d6575b600080fd5b6101566004803603810190610151919061278d565b610444565b6040516101639190612c68565b60405180910390f35b610174610456565b6040516101819190612c9e565b60405180910390f35b6101a4600480360381019061019f91906127df565b6104e8565b6040516101b19190612c01565b60405180910390f35b6101d460048036038101906101cf91906126ec565b61056d565b005b6101f060048036038101906101eb9190612592565b610685565b005b61020c60048036038101906102079190612728565b6106e5565b6040516102199190612c83565b60405180910390f35b61023c60048036038101906102379190612751565b610705565b005b61025860048036038101906102539190612751565b610726565b005b610274600480360381019061026f9190612592565b6107a9565b005b610290600480360381019061028b91906127df565b6107c9565b60405161029d9190612c01565b60405180910390f35b6102c060048036038101906102bb919061252d565b61087b565b6040516102cd9190612f00565b60405180910390f35b6102f060048036038101906102eb9190612751565b610933565b6040516102fd9190612c68565b60405180910390f35b61030e61099e565b60405161031b9190612c9e565b60405180910390f35b61032c610a30565b6040516103399190612c83565b60405180910390f35b61035c6004803603810190610357919061265c565b610a37565b005b610378600480360381019061037391906125e1565b610a4d565b005b610394600480360381019061038f91906127df565b610aaf565b6040516103a19190612c9e565b60405180910390f35b6103c460048036038101906103bf9190612698565b610c01565b6040516103d19190612f00565b60405180910390f35b6103e2610c76565b6040516103ef9190612c83565b60405180910390f35b610412600480360381019061040d9190612751565b610c9a565b005b61042e60048036038101906104299190612556565b610cbb565b60405161043b9190612c68565b60405180910390f35b600061044f82610d4f565b9050919050565b606060008054610465906131e4565b80601f0160208091040260200160405190810160405280929190818152602001828054610491906131e4565b80156104de5780601f106104b3576101008083540402835291602001916104de565b820191906000526020600020905b8154815290600101906020018083116104c157829003601f168201915b5050505050905090565b60006104f382610dc9565b610532576040517f08c379a000000000000000000000000000000000000000000000000000000000815260040161052990612e60565b60405180910390fd5b6004600083815260200190815260200160002060009054906101000a900473ffffffffffffffffffffffffffffffffffffffff169050919050565b6000610578826107c9565b90508073ffffffffffffffffffffffffffffffffffffffff168373ffffffffffffffffffffffffffffffffffffffff1614156105e9576040517f08c379a00000000000000000000000000000000000000000000000000000000081526004016105e090612ea0565b60405180910390fd5b8073ffffffffffffffffffffffffffffffffffffffff16610608610e35565b73ffffffffffffffffffffffffffffffffffffffff161480610637575061063681610631610e35565b610cbb565b5b610676576040517f08c379a000000000000000000000000000000000000000000000000000000000815260040161066d90612da0565b60405180910390fd5b6106808383610e3d565b505050565b610696610690610e35565b82610ef6565b6106d5576040517f08c379a00000000000000000000000000000000000000000000000000000000081526004016106cc90612ec0565b60405180910390fd5b6106e0838383610fd4565b505050565b600060076000838152602001908152602001600020600101549050919050565b61070e826106e5565b6107178161123b565b610721838361124f565b505050565b61072e610e35565b73ffffffffffffffffffffffffffffffffffffffff168173ffffffffffffffffffffffffffffffffffffffff161461079b576040517f08c379a000000000000000000000000000000000000000000000000000000000815260040161079290612ee0565b60405180910390fd5b6107a58282611330565b5050565b6107c483838360405180602001604052806000815250610a4d565b505050565b6000806002600084815260200190815260200160002060009054906101000a900473ffffffffffffffffffffffffffffffffffffffff169050600073ffffffffffffffffffffffffffffffffffffffff168173ffffffffffffffffffffffffffffffffffffffff161415610872576040517f08c379a000000000000000000000000000000000000000000000000000000000815260040161086990612de0565b60405180910390fd5b80915050919050565b60008073ffffffffffffffffffffffffffffffffffffffff168273ffffffffffffffffffffffffffffffffffffffff1614156108ec576040517f08c379a00000000000000000000000000000000000000000000000000000000081526004016108e390612dc0565b60405180910390fd5b600360008373ffffffffffffffffffffffffffffffffffffffff1673ffffffffffffffffffffffffffffffffffffffff168152602001908152602001600020549050919050565b60006007600084815260200190815260200160002060000160008373ffffffffffffffffffffffffffffffffffffffff1673ffffffffffffffffffffffffffffffffffffffff16815260200190815260200160002060009054906101000a900460ff16905092915050565b6060600180546109ad906131e4565b80601f01602080910402602001604051908101604052809291908181526020018280546109d9906131e4565b8015610a265780601f106109fb57610100808354040283529160200191610a26565b820191906000526020600020905b815481529060010190602001808311610a0957829003601f168201915b5050505050905090565b6000801b81565b610a49610a42610e35565b8383611412565b5050565b610a5e610a58610e35565b83610ef6565b610a9d576040517f08c379a0000000000000000000000000000000000000000000000000000000008152600401610a9490612ec0565b60405180910390fd5b610aa98484848461157f565b50505050565b6060610aba82610dc9565b610af9576040517f08c379a0000000000000000000000000000000000000000000000000000000008152600401610af090612e40565b60405180910390fd5b6000600660008481526020019081526020016000208054610b19906131e4565b80601f0160208091040260200160405190810160405280929190818152602001828054610b45906131e4565b8015610b925780601f10610b6757610100808354040283529160200191610b92565b820191906000526020600020905b815481529060010190602001808311610b7557829003601f168201915b505050505090506000610ba36115db565b9050600081511415610bb9578192505050610bfc565b600082511115610bee578082604051602001610bd6929190612ba3565b60405160208183030381529060405292505050610bfc565b610bf7846115fb565b925050505b919050565b60007f9f2df0fed2c77648de5860a4cc508cd0818c85b8b8a1ab4ceeef8d981c8956a6610c2d8161123b565b610c3760086116a2565b6000610c4360086116b8565b9050610c4f85826116c6565b610c58846116e4565b610c62818561177d565b610c6b816117f1565b809250505092915050565b7f9f2df0fed2c77648de5860a4cc508cd0818c85b8b8a1ab4ceeef8d981c8956a681565b610ca3826106e5565b610cac8161123b565b610cb68383611330565b505050565b6000600560008473ffffffffffffffffffffffffffffffffffffffff1673ffffffffffffffffffffffffffffffffffffffff16815260200190815260200160002060008373ffffffffffffffffffffffffffffffffffffffff1673ffffffffffffffffffffffffffffffffffffffff16815260200190815260200160002060009054906101000a900460ff16905092915050565b60007f7965db0b000000000000000000000000000000000000000000000000000000007bffffffffffffffffffffffffffffffffffffffffffffffffffffffff1916827bffffffffffffffffffffffffffffffffffffffffffffffffffffffff19161480610dc25750610dc18261188a565b5b9050919050565b60008073ffffffffffffffffffffffffffffffffffffffff166002600084815260200190815260200160002060009054906101000a900473ffffffffffffffffffffffffffffffffffffffff1673ffffffffffffffffffffffffffffffffffffffff1614159050919050565b600033905090565b816004600083815260200190815260200160002060006101000a81548173ffffffffffffffffffffffffffffffffffffffff021916908373ffffffffffffffffffffffffffffffffffffffff160217905550808273ffffffffffffffffffffffffffffffffffffffff16610eb0836107c9565b73ffffffffffffffffffffffffffffffffffffffff167f8c5be1e5ebec7d5bd14f71427d1e84f3dd0314c0f7b2291e5b200ac8c7c3b92560405160405180910390a45050565b6000610f0182610dc9565b610f40576040517f08c379a0000000000000000000000000000000000000000000000000000000008152600401610f3790612d80565b60405180910390fd5b6000610f4b836107c9565b90508073ffffffffffffffffffffffffffffffffffffffff168473ffffffffffffffffffffffffffffffffffffffff161480610f8d5750610f8c8185610cbb565b5b80610fcb57508373ffffffffffffffffffffffffffffffffffffffff16610fb3846104e8565b73ffffffffffffffffffffffffffffffffffffffff16145b91505092915050565b8273ffffffffffffffffffffffffffffffffffffffff16610ff4826107c9565b73ffffffffffffffffffffffffffffffffffffffff161461104a576040517f08c379a000000000000000000000000000000000000000000000000000000000815260040161104190612d00565b60405180910390fd5b600073ffffffffffffffffffffffffffffffffffffffff168273ffffffffffffffffffffffffffffffffffffffff1614156110ba576040517f08c379a00000000000000000000000000000000000000000000000000000000081526004016110b190612d40565b60405180910390fd5b6110c583838361196c565b6110d0600082610e3d565b6001600360008573ffffffffffffffffffffffffffffffffffffffff1673ffffffffffffffffffffffffffffffffffffffff168152602001908152602001600020600082825461112091906130c6565b925050819055506001600360008473ffffffffffffffffffffffffffffffffffffffff1673ffffffffffffffffffffffffffffffffffffffff16815260200190815260200160002060008282546111779190612fe5565b92505081905550816002600083815260200190815260200160002060006101000a81548173ffffffffffffffffffffffffffffffffffffffff021916908373ffffffffffffffffffffffffffffffffffffffff160217905550808273ffffffffffffffffffffffffffffffffffffffff168473ffffffffffffffffffffffffffffffffffffffff167fddf252ad1be2c89b69c2b068fc378daa952ba7f163c4a11628f55a4df523b3ef60405160405180910390a4611236838383611971565b505050565b61124c81611247610e35565b611976565b50565b6112598282610933565b61132c5760016007600084815260200190815260200160002060000160008373ffffffffffffffffffffffffffffffffffffffff1673ffffffffffffffffffffffffffffffffffffffff16815260200190815260200160002060006101000a81548160ff0219169083151502179055506112d1610e35565b73ffffffffffffffffffffffffffffffffffffffff168173ffffffffffffffffffffffffffffffffffffffff16837f2f8788117e7eff1d82e926ec794901d17c78024a50270940304540a733656f0d60405160405180910390a45b5050565b61133a8282610933565b1561140e5760006007600084815260200190815260200160002060000160008373ffffffffffffffffffffffffffffffffffffffff1673ffffffffffffffffffffffffffffffffffffffff16815260200190815260200160002060006101000a81548160ff0219169083151502179055506113b3610e35565b73ffffffffffffffffffffffffffffffffffffffff168173ffffffffffffffffffffffffffffffffffffffff16837ff6391f5c32d9c69d2a47ea670b442974b53935d1edc7fd64eb21e047a839171b60405160405180910390a45b5050565b8173ffffffffffffffffffffffffffffffffffffffff168373ffffffffffffffffffffffffffffffffffffffff161415611481576040517f08c379a000000000000000000000000000000000000000000000000000000000815260040161147890612d60565b60405180910390fd5b80600560008573ffffffffffffffffffffffffffffffffffffffff1673ffffffffffffffffffffffffffffffffffffffff16815260200190815260200160002060008473ffffffffffffffffffffffffffffffffffffffff1673ffffffffffffffffffffffffffffffffffffffff16815260200190815260200160002060006101000a81548160ff0219169083151502179055508173ffffffffffffffffffffffffffffffffffffffff168373ffffffffffffffffffffffffffffffffffffffff167f17307eab39ab6107e8899845ad3d59bd9653f200f220920489ca2b5937696c31836040516115729190612c68565b60405180910390a3505050565b61158a848484610fd4565b61159684848484611a13565b6115d5576040517f08c379a00000000000000000000000000000000000000000000000000000000081526004016115cc90612ce0565b60405180910390fd5b50505050565b606060405180606001604052806022815260200161394a60229139905090565b606061160682610dc9565b611645576040517f08c379a000000000000000000000000000000000000000000000000000000000815260040161163c90612e80565b60405180910390fd5b600061164f6115db565b9050600081511161166f576040518060200160405280600081525061169a565b8061167984611baa565b60405160200161168a929190612ba3565b6040516020818303038152906040525b915050919050565b6001816000016000828254019250508190555050565b600081600001549050919050565b6116e0828260405180602001604052806000815250611d57565b5050565b61177a816040516024016116f89190612c9e565b6040516020818303038152906040527f41304fac000000000000000000000000000000000000000000000000000000007bffffffffffffffffffffffffffffffffffffffffffffffffffffffff19166020820180517bffffffffffffffffffffffffffffffffffffffffffffffffffffffff8381831617835250505050611db2565b50565b61178682610dc9565b6117c5576040517f08c379a00000000000000000000000000000000000000000000000000000000081526004016117bc90612e00565b60405180910390fd5b806006600084815260200190815260200160002090805190602001906117ec92919061233c565b505050565b611887816040516024016118059190612f00565b6040516020818303038152906040527ff5b1bba9000000000000000000000000000000000000000000000000000000007bffffffffffffffffffffffffffffffffffffffffffffffffffffffff19166020820180517bffffffffffffffffffffffffffffffffffffffffffffffffffffffff8381831617835250505050611db2565b50565b60007f80ac58cd000000000000000000000000000000000000000000000000000000007bffffffffffffffffffffffffffffffffffffffffffffffffffffffff1916827bffffffffffffffffffffffffffffffffffffffffffffffffffffffff1916148061195557507f5b5e139f000000000000000000000000000000000000000000000000000000007bffffffffffffffffffffffffffffffffffffffffffffffffffffffff1916827bffffffffffffffffffffffffffffffffffffffffffffffffffffffff1916145b80611965575061196482611ddb565b5b9050919050565b505050565b505050565b6119808282610933565b611a0f576119a58173ffffffffffffffffffffffffffffffffffffffff166014611e45565b6119b38360001c6020611e45565b6040516020016119c4929190612bc7565b6040516020818303038152906040526040517f08c379a0000000000000000000000000000000000000000000000000000000008152600401611a069190612c9e565b60405180910390fd5b5050565b6000611a348473ffffffffffffffffffffffffffffffffffffffff1661213f565b15611b9d578373ffffffffffffffffffffffffffffffffffffffff1663150b7a02611a5d610e35565b8786866040518563ffffffff1660e01b8152600401611a7f9493929190612c1c565b602060405180830381600087803b158015611a9957600080fd5b505af1925050508015611aca57506040513d601f19601f82011682018060405250810190611ac791906127b6565b60015b611b4d573d8060008114611afa576040519150601f19603f3d011682016040523d82523d6000602084013e611aff565b606091505b50600081511415611b45576040517f08c379a0000000000000000000000000000000000000000000000000000000008152600401611b3c90612ce0565b60405180910390fd5b805181602001fd5b63150b7a0260e01b7bffffffffffffffffffffffffffffffffffffffffffffffffffffffff1916817bffffffffffffffffffffffffffffffffffffffffffffffffffffffff191614915050611ba2565b600190505b949350505050565b60606000821415611bf2576040518060400160405280600181526020017f30000000000000000000000000000000000000000000000000000000000000008152509050611d52565b600082905060005b60008214611c24578080611c0d90613247565b915050600a82611c1d919061303b565b9150611bfa565b60008167ffffffffffffffff811115611c66577f4e487b7100000000000000000000000000000000000000000000000000000000600052604160045260246000fd5b6040519080825280601f01601f191660200182016040528015611c985781602001600182028036833780820191505090505b5090505b60008514611d4b57600182611cb191906130c6565b9150600a85611cc09190613290565b6030611ccc9190612fe5565b60f81b818381518110611d08577f4e487b7100000000000000000000000000000000000000000000000000000000600052603260045260246000fd5b60200101907effffffffffffffffffffffffffffffffffffffffffffffffffffffffffffff1916908160001a905350600a85611d44919061303b565b9450611c9c565b8093505050505b919050565b611d618383612162565b611d6e6000848484611a13565b611dad576040517f08c379a0000000000000000000000000000000000000000000000000000000008152600401611da490612ce0565b60405180910390fd5b505050565b60008151905060006a636f6e736f6c652e6c6f679050602083016000808483855afa5050505050565b60007f01ffc9a7000000000000000000000000000000000000000000000000000000007bffffffffffffffffffffffffffffffffffffffffffffffffffffffff1916827bffffffffffffffffffffffffffffffffffffffffffffffffffffffff1916149050919050565b606060006002836002611e58919061306c565b611e629190612fe5565b67ffffffffffffffff811115611ea1577f4e487b7100000000000000000000000000000000000000000000000000000000600052604160045260246000fd5b6040519080825280601f01601f191660200182016040528015611ed35781602001600182028036833780820191505090505b5090507f300000000000000000000000000000000000000000000000000000000000000081600081518110611f31577f4e487b7100000000000000000000000000000000000000000000000000000000600052603260045260246000fd5b60200101907effffffffffffffffffffffffffffffffffffffffffffffffffffffffffffff1916908160001a9053507f780000000000000000000000000000000000000000000000000000000000000081600181518110611fbb577f4e487b7100000000000000000000000000000000000000000000000000000000600052603260045260246000fd5b60200101907effffffffffffffffffffffffffffffffffffffffffffffffffffffffffffff1916908160001a90535060006001846002611ffb919061306c565b6120059190612fe5565b90505b60018111156120f1577f3031323334353637383961626364656600000000000000000000000000000000600f86166010811061206d577f4e487b7100000000000000000000000000000000000000000000000000000000600052603260045260246000fd5b1a60f81b8282815181106120aa577f4e487b7100000000000000000000000000000000000000000000000000000000600052603260045260246000fd5b60200101907effffffffffffffffffffffffffffffffffffffffffffffffffffffffffffff1916908160001a905350600485901c9450806120ea906131ba565b9050612008565b5060008414612135576040517f08c379a000000000000000000000000000000000000000000000000000000000815260040161212c90612cc0565b60405180910390fd5b8091505092915050565b6000808273ffffffffffffffffffffffffffffffffffffffff163b119050919050565b600073ffffffffffffffffffffffffffffffffffffffff168273ffffffffffffffffffffffffffffffffffffffff1614156121d2576040517f08c379a00000000000000000000000000000000000000000000000000000000081526004016121c990612e20565b60405180910390fd5b6121db81610dc9565b1561221b576040517f08c379a000000000000000000000000000000000000000000000000000000000815260040161221290612d20565b60405180910390fd5b6122276000838361196c565b6001600360008473ffffffffffffffffffffffffffffffffffffffff1673ffffffffffffffffffffffffffffffffffffffff16815260200190815260200160002060008282546122779190612fe5565b92505081905550816002600083815260200190815260200160002060006101000a81548173ffffffffffffffffffffffffffffffffffffffff021916908373ffffffffffffffffffffffffffffffffffffffff160217905550808273ffffffffffffffffffffffffffffffffffffffff16600073ffffffffffffffffffffffffffffffffffffffff167fddf252ad1be2c89b69c2b068fc378daa952ba7f163c4a11628f55a4df523b3ef60405160405180910390a461233860008383611971565b5050565b828054612348906131e4565b90600052602060002090601f01602090048101928261236a57600085556123b1565b82601f1061238357805160ff19168380011785556123b1565b828001600101855582156123b1579182015b828111156123b0578251825591602001919060010190612395565b5b5090506123be91906123c2565b5090565b5b808211156123db5760008160009055506001016123c3565b5090565b60006123f26123ed84612f40565b612f1b565b90508281526020810184848401111561240a57600080fd5b612415848285613178565b509392505050565b600061243061242b84612f71565b612f1b565b90508281526020810184848401111561244857600080fd5b612453848285613178565b509392505050565b60008135905061246a816138d6565b92915050565b60008135905061247f816138ed565b92915050565b60008135905061249481613904565b92915050565b6000813590506124a98161391b565b92915050565b6000815190506124be8161391b565b92915050565b600082601f8301126124d557600080fd5b81356124e58482602086016123df565b91505092915050565b600082601f8301126124ff57600080fd5b813561250f84826020860161241d565b91505092915050565b60008135905061252781613932565b92915050565b60006020828403121561253f57600080fd5b600061254d8482850161245b565b91505092915050565b6000806040838503121561256957600080fd5b60006125778582860161245b565b92505060206125888582860161245b565b9150509250929050565b6000806000606084860312156125a757600080fd5b60006125b58682870161245b565b93505060206125c68682870161245b565b92505060406125d786828701612518565b9150509250925092565b600080600080608085870312156125f757600080fd5b60006126058782880161245b565b94505060206126168782880161245b565b935050604061262787828801612518565b925050606085013567ffffffffffffffff81111561264457600080fd5b612650878288016124c4565b91505092959194509250565b6000806040838503121561266f57600080fd5b600061267d8582860161245b565b925050602061268e85828601612470565b9150509250929050565b600080604083850312156126ab57600080fd5b60006126b98582860161245b565b925050602083013567ffffffffffffffff8111156126d657600080fd5b6126e2858286016124ee565b9150509250929050565b600080604083850312156126ff57600080fd5b600061270d8582860161245b565b925050602061271e85828601612518565b9150509250929050565b60006020828403121561273a57600080fd5b600061274884828501612485565b91505092915050565b6000806040838503121561276457600080fd5b600061277285828601612485565b92505060206127838582860161245b565b9150509250929050565b60006020828403121561279f57600080fd5b60006127ad8482850161249a565b91505092915050565b6000602082840312156127c857600080fd5b60006127d6848285016124af565b91505092915050565b6000602082840312156127f157600080fd5b60006127ff84828501612518565b91505092915050565b612811816130fa565b82525050565b6128208161310c565b82525050565b61282f81613118565b82525050565b600061284082612fa2565b61284a8185612fb8565b935061285a818560208601613187565b6128638161337d565b840191505092915050565b600061287982612fad565b6128838185612fc9565b9350612893818560208601613187565b61289c8161337d565b840191505092915050565b60006128b282612fad565b6128bc8185612fda565b93506128cc818560208601613187565b80840191505092915050565b60006128e5602083612fc9565b91506128f08261338e565b602082019050919050565b6000612908603283612fc9565b9150612913826133b7565b604082019050919050565b600061292b602583612fc9565b915061293682613406565b604082019050919050565b600061294e601c83612fc9565b915061295982613455565b602082019050919050565b6000612971602483612fc9565b915061297c8261347e565b604082019050919050565b6000612994601983612fc9565b915061299f826134cd565b602082019050919050565b60006129b7602c83612fc9565b91506129c2826134f6565b604082019050919050565b60006129da603883612fc9565b91506129e582613545565b604082019050919050565b60006129fd602a83612fc9565b9150612a0882613594565b604082019050919050565b6000612a20602983612fc9565b9150612a2b826135e3565b604082019050919050565b6000612a43602e83612fc9565b9150612a4e82613632565b604082019050919050565b6000612a66602083612fc9565b9150612a7182613681565b602082019050919050565b6000612a89603183612fc9565b9150612a94826136aa565b604082019050919050565b6000612aac602c83612fc9565b9150612ab7826136f9565b604082019050919050565b6000612acf602f83612fc9565b9150612ada82613748565b604082019050919050565b6000612af2602183612fc9565b9150612afd82613797565b604082019050919050565b6000612b15603183612fc9565b9150612b20826137e6565b604082019050919050565b6000612b38601783612fda565b9150612b4382613835565b601782019050919050565b6000612b5b601183612fda565b9150612b668261385e565b601182019050919050565b6000612b7e602f83612fc9565b9150612b8982613887565b604082019050919050565b612b9d8161316e565b82525050565b6000612baf82856128a7565b9150612bbb82846128a7565b91508190509392505050565b6000612bd282612b2b565b9150612bde82856128a7565b9150612be982612b4e565b9150612bf582846128a7565b91508190509392505050565b6000602082019050612c166000830184612808565b92915050565b6000608082019050612c316000830187612808565b612c3e6020830186612808565b612c4b6040830185612b94565b8181036060830152612c5d8184612835565b905095945050505050565b6000602082019050612c7d6000830184612817565b92915050565b6000602082019050612c986000830184612826565b92915050565b60006020820190508181036000830152612cb8818461286e565b905092915050565b60006020820190508181036000830152612cd9816128d8565b9050919050565b60006020820190508181036000830152612cf9816128fb565b9050919050565b60006020820190508181036000830152612d198161291e565b9050919050565b60006020820190508181036000830152612d3981612941565b9050919050565b60006020820190508181036000830152612d5981612964565b9050919050565b60006020820190508181036000830152612d7981612987565b9050919050565b60006020820190508181036000830152612d99816129aa565b9050919050565b60006020820190508181036000830152612db9816129cd565b9050919050565b60006020820190508181036000830152612dd9816129f0565b9050919050565b60006020820190508181036000830152612df981612a13565b9050919050565b60006020820190508181036000830152612e1981612a36565b9050919050565b60006020820190508181036000830152612e3981612a59565b9050919050565b60006020820190508181036000830152612e5981612a7c565b9050919050565b60006020820190508181036000830152612e7981612a9f565b9050919050565b60006020820190508181036000830152612e9981612ac2565b9050919050565b60006020820190508181036000830152612eb981612ae5565b9050919050565b60006020820190508181036000830152612ed981612b08565b9050919050565b60006020820190508181036000830152612ef981612b71565b9050919050565b6000602082019050612f156000830184612b94565b92915050565b6000612f25612f36565b9050612f318282613216565b919050565b6000604051905090565b600067ffffffffffffffff821115612f5b57612f5a61334e565b5b612f648261337d565b9050602081019050919050565b600067ffffffffffffffff821115612f8c57612f8b61334e565b5b612f958261337d565b9050602081019050919050565b600081519050919050565b600081519050919050565b600082825260208201905092915050565b600082825260208201905092915050565b600081905092915050565b6000612ff08261316e565b9150612ffb8361316e565b9250827fffffffffffffffffffffffffffffffffffffffffffffffffffffffffffffffff038211156130305761302f6132c1565b5b828201905092915050565b60006130468261316e565b91506130518361316e565b925082613061576130606132f0565b5b828204905092915050565b60006130778261316e565b91506130828361316e565b9250817fffffffffffffffffffffffffffffffffffffffffffffffffffffffffffffffff04831182151516156130bb576130ba6132c1565b5b828202905092915050565b60006130d18261316e565b91506130dc8361316e565b9250828210156130ef576130ee6132c1565b5b828203905092915050565b60006131058261314e565b9050919050565b60008115159050919050565b6000819050919050565b60007fffffffff0000000000000000000000000000000000000000000000000000000082169050919050565b600073ffffffffffffffffffffffffffffffffffffffff82169050919050565b6000819050919050565b82818337600083830152505050565b60005b838110156131a557808201518184015260208101905061318a565b838111156131b4576000848401525b50505050565b60006131c58261316e565b915060008214156131d9576131d86132c1565b5b600182039050919050565b600060028204905060018216806131fc57607f821691505b602082108114156132105761320f61331f565b5b50919050565b61321f8261337d565b810181811067ffffffffffffffff8211171561323e5761323d61334e565b5b80604052505050565b60006132528261316e565b91507fffffffffffffffffffffffffffffffffffffffffffffffffffffffffffffffff821415613285576132846132c1565b5b600182019050919050565b600061329b8261316e565b91506132a68361316e565b9250826132b6576132b56132f0565b5b828206905092915050565b7f4e487b7100000000000000000000000000000000000000000000000000000000600052601160045260246000fd5b7f4e487b7100000000000000000000000000000000000000000000000000000000600052601260045260246000fd5b7f4e487b7100000000000000000000000000000000000000000000000000000000600052602260045260246000fd5b7f4e487b7100000000000000000000000000000000000000000000000000000000600052604160045260246000fd5b6000601f19601f8301169050919050565b7f537472696e67733a20686578206c656e67746820696e73756666696369656e74600082015250565b7f4552433732313a207472616e7366657220746f206e6f6e20455243373231526560008201527f63656976657220696d706c656d656e7465720000000000000000000000000000602082015250565b7f4552433732313a207472616e736665722066726f6d20696e636f72726563742060008201527f6f776e6572000000000000000000000000000000000000000000000000000000602082015250565b7f4552433732313a20746f6b656e20616c7265616479206d696e74656400000000600082015250565b7f4552433732313a207472616e7366657220746f20746865207a65726f2061646460008201527f7265737300000000000000000000000000000000000000000000000000000000602082015250565b7f4552433732313a20617070726f766520746f2063616c6c657200000000000000600082015250565b7f4552433732313a206f70657261746f7220717565727920666f72206e6f6e657860008201527f697374656e7420746f6b656e0000000000000000000000000000000000000000602082015250565b7f4552433732313a20617070726f76652063616c6c6572206973206e6f74206f7760008201527f6e6572206e6f7220617070726f76656420666f7220616c6c0000000000000000602082015250565b7f4552433732313a2062616c616e636520717565727920666f7220746865207a6560008201527f726f206164647265737300000000000000000000000000000000000000000000602082015250565b7f4552433732313a206f776e657220717565727920666f72206e6f6e657869737460008201527f656e7420746f6b656e0000000000000000000000000000000000000000000000602082015250565b7f45524337323155524953746f726167653a2055524920736574206f66206e6f6e60008201527f6578697374656e7420746f6b656e000000000000000000000000000000000000602082015250565b7f4552433732313a206d696e7420746f20746865207a65726f2061646472657373600082015250565b7f45524337323155524953746f726167653a2055524920717565727920666f722060008201527f6e6f6e6578697374656e7420746f6b656e000000000000000000000000000000602082015250565b7f4552433732313a20617070726f76656420717565727920666f72206e6f6e657860008201527f697374656e7420746f6b656e0000000000000000000000000000000000000000602082015250565b7f4552433732314d657461646174613a2055524920717565727920666f72206e6f60008201527f6e6578697374656e7420746f6b656e0000000000000000000000000000000000602082015250565b7f4552433732313a20617070726f76616c20746f2063757272656e74206f776e6560008201527f7200000000000000000000000000000000000000000000000000000000000000602082015250565b7f4552433732313a207472616e736665722063616c6c6572206973206e6f74206f60008201527f776e6572206e6f7220617070726f766564000000000000000000000000000000602082015250565b7f416363657373436f6e74726f6c3a206163636f756e7420000000000000000000600082015250565b7f206973206d697373696e6720726f6c6520000000000000000000000000000000600082015250565b7f416363657373436f6e74726f6c3a2063616e206f6e6c792072656e6f756e636560008201527f20726f6c657320666f722073656c660000000000000000000000000000000000602082015250565b6138df816130fa565b81146138ea57600080fd5b50565b6138f68161310c565b811461390157600080fd5b50565b61390d81613118565b811461391857600080fd5b50565b61392481613122565b811461392f57600080fd5b50565b61393b8161316e565b811461394657600080fd5b5056fe68747470733a2f2f697066732e6d6f72616c69732e696f3a323035332f697066732fa2646970667358221220d62a8f2918b03ac124a2bbd256566fd3f5320ee08ed4c4cd4d5d1dd307cc5c9364736f6c63430008040033",
  "linkReferences": {},
  "deployedLinkReferences": {}
}