{
  "_format": "hh-sol-artifact-1",
  "contractName": "StakingSystem",
  "sourceName": "contracts/StakeSystem.sol",
  "abi": [
    {
      "inputs": [
        {
          "internalType": "contract IERC721",
          "name": "_nft",
          "type": "address"
        }
      ],
      "stateMutability": "nonpayable",
      "type": "constructor"
    },
    {
      "anonymous": false,
      "inputs": [
        {
          "indexed": true,
          "internalType": "address",
          "name": "previousOwner",
          "type": "address"
        },
        {
          "indexed": true,
          "internalType": "address",
          "name": "newOwner",
          "type": "address"
        }
      ],
      "name": "OwnershipTransferred",
      "type": "event"
    },
    {
      "anonymous": false,
      "inputs": [
        {
          "indexed": false,
          "internalType": "address",
          "name": "owner",
          "type": "address"
        },
        {
          "indexed": false,
          "internalType": "uint256",
          "name": "amount",
          "type": "uint256"
        }
      ],
      "name": "Staked",
      "type": "event"
    },
    {
      "anonymous": false,
      "inputs": [
        {
          "indexed": false,
          "internalType": "address",
          "name": "owner",
          "type": "address"
        },
        {
          "indexed": false,
          "internalType": "uint256",
          "name": "amount",
          "type": "uint256"
        }
      ],
      "name": "Unstaked",
      "type": "event"
    },
    {
      "anonymous": false,
      "inputs": [
        {
          "indexed": false,
          "internalType": "address",
          "name": "owner",
          "type": "address"
        },
        {
          "indexed": false,
          "internalType": "address",
          "name": "to",
          "type": "address"
        },
        {
          "indexed": false,
          "internalType": "uint256",
          "name": "amount",
          "type": "uint256"
        }
      ],
      "name": "UnstakedToAddress",
      "type": "event"
    },
    {
      "inputs": [
        {
          "internalType": "address",
          "name": "_user",
          "type": "address"
        }
      ],
      "name": "getStakedTokens",
      "outputs": [
        {
          "internalType": "uint256[]",
          "name": "tokenIds",
          "type": "uint256[]"
        }
      ],
      "stateMutability": "view",
      "type": "function"
    },
    {
      "inputs": [],
      "name": "nft",
      "outputs": [
        {
          "internalType": "contract IERC721",
          "name": "",
          "type": "address"
        }
      ],
      "stateMutability": "view",
      "type": "function"
    },
    {
      "inputs": [
        {
          "internalType": "address",
          "name": "",
          "type": "address"
        },
        {
          "internalType": "address",
          "name": "",
          "type": "address"
        },
        {
          "internalType": "uint256",
          "name": "",
          "type": "uint256"
        },
        {
          "internalType": "bytes",
          "name": "",
          "type": "bytes"
        }
      ],
      "name": "onERC721Received",
      "outputs": [
        {
          "internalType": "bytes4",
          "name": "",
          "type": "bytes4"
        }
      ],
      "stateMutability": "nonpayable",
      "type": "function"
    },
    {
      "inputs": [],
      "name": "owner",
      "outputs": [
        {
          "internalType": "address",
          "name": "",
          "type": "address"
        }
      ],
      "stateMutability": "view",
      "type": "function"
    },
    {
      "inputs": [],
      "name": "renounceOwnership",
      "outputs": [],
      "stateMutability": "nonpayable",
      "type": "function"
    },
    {
      "inputs": [],
      "name": "rewardsToken",
      "outputs": [
        {
          "internalType": "contract IRewardToken",
          "name": "",
          "type": "address"
        }
      ],
      "stateMutability": "view",
      "type": "function"
    },
    {
      "inputs": [
        {
          "internalType": "uint256",
          "name": "tokenId",
          "type": "uint256"
        }
      ],
      "name": "stake",
      "outputs": [],
      "stateMutability": "nonpayable",
      "type": "function"
    },
    {
      "inputs": [
        {
          "internalType": "uint256[]",
          "name": "tokenIds",
          "type": "uint256[]"
        }
      ],
      "name": "stakeBatch",
      "outputs": [],
      "stateMutability": "nonpayable",
      "type": "function"
    },
    {
      "inputs": [],
      "name": "stakedTotal",
      "outputs": [
        {
          "internalType": "uint256",
          "name": "",
          "type": "uint256"
        }
      ],
      "stateMutability": "view",
      "type": "function"
    },
    {
      "inputs": [
        {
          "internalType": "uint256",
          "name": "",
          "type": "uint256"
        }
      ],
      "name": "tokenOwner",
      "outputs": [
        {
          "internalType": "address",
          "name": "",
          "type": "address"
        }
      ],
      "stateMutability": "view",
      "type": "function"
    },
    {
      "inputs": [
        {
          "internalType": "address",
          "name": "newOwner",
          "type": "address"
        }
      ],
      "name": "transferOwnership",
      "outputs": [],
      "stateMutability": "nonpayable",
      "type": "function"
    },
    {
      "inputs": [
        {
          "internalType": "uint256",
          "name": "_tokenId",
          "type": "uint256"
        }
      ],
      "name": "unstake",
      "outputs": [],
      "stateMutability": "nonpayable",
      "type": "function"
    },
    {
      "inputs": [
        {
          "internalType": "uint256[]",
          "name": "tokenIds",
          "type": "uint256[]"
        }
      ],
      "name": "unstakeBatch",
      "outputs": [],
      "stateMutability": "nonpayable",
      "type": "function"
    },
    {
      "inputs": [
        {
          "internalType": "uint256",
          "name": "_tokenId",
          "type": "uint256"
        },
        {
          "internalType": "address",
          "name": "_to",
          "type": "address"
        }
      ],
      "name": "unstaketoAddress",
      "outputs": [],
      "stateMutability": "nonpayable",
      "type": "function"
    }
  ],
  "bytecode": "0x60806040523480156200001157600080fd5b5060405162001bde38038062001bde833981810160405281019062000037919062000182565b620000576200004b6200009f60201b60201c565b620000a760201b60201c565b80600260006101000a81548173ffffffffffffffffffffffffffffffffffffffff021916908373ffffffffffffffffffffffffffffffffffffffff1602179055505062000210565b600033905090565b60008060009054906101000a900473ffffffffffffffffffffffffffffffffffffffff169050816000806101000a81548173ffffffffffffffffffffffffffffffffffffffff021916908373ffffffffffffffffffffffffffffffffffffffff1602179055508173ffffffffffffffffffffffffffffffffffffffff168173ffffffffffffffffffffffffffffffffffffffff167f8be0079c531659141344cd1fd0a4f28419497f9722a3daafe3b4186f6b6457e060405160405180910390a35050565b6000815190506200017c81620001f6565b92915050565b6000602082840312156200019557600080fd5b6000620001a5848285016200016b565b91505092915050565b6000620001bb82620001d6565b9050919050565b6000620001cf82620001ae565b9050919050565b600073ffffffffffffffffffffffffffffffffffffffff82169050919050565b6200020181620001c2565b81146200020d57600080fd5b50565b6119be80620002206000396000f3fe608060405234801561001057600080fd5b50600436106100ea5760003560e01c80638da5cb5b1161008c578063d66692a711610066578063d66692a714610237578063e64a21f314610255578063f2fde38b14610271578063fda1b60e1461028d576100ea565b80638da5cb5b146101df578063a694fc3a146101fd578063d1af0c7d14610219576100ea565b80632e17de78116100c85780632e17de781461016b57806347ccca021461018757806363c28db1146101a5578063715018a6146101d5576100ea565b8063150b7a02146100ef5780631caaa4871461011f578063230f436d1461014f575b600080fd5b610109600480360381019061010491906111a0565b6102a9565b60405161011691906114ba565b60405180910390f35b6101396004803603810190610134919061125c565b6102bd565b604051610146919061141d565b60405180910390f35b6101696004803603810190610164919061121b565b6102f0565b005b6101856004803603810190610180919061125c565b61035d565b005b61018f61036a565b60405161019c91906114d5565b60405180910390f35b6101bf60048036038101906101ba919061114e565b610390565b6040516101cc9190611498565b60405180910390f35b6101dd61042a565b005b6101e76104b2565b6040516101f4919061141d565b60405180910390f35b6102176004803603810190610212919061125c565b6104db565b005b6102216104e8565b60405161022e91906114f0565b60405180910390f35b61023f61050e565b60405161024c919061158b565b60405180910390f35b61026f600480360381019061026a919061121b565b610514565b005b61028b6004803603810190610286919061114e565b610629565b005b6102a760048036038101906102a29190611285565b610721565b005b600063150b7a0260e01b9050949350505050565b60056020528060005260406000206000915054906101000a900473ffffffffffffffffffffffffffffffffffffffff1681565b60005b81518110156103595761034633838381518110610339577f4e487b7100000000000000000000000000000000000000000000000000000000600052603260045260246000fd5b6020026020010151610730565b80806103519061178c565b9150506102f3565b5050565b6103673382610a7e565b50565b600260009054906101000a900473ffffffffffffffffffffffffffffffffffffffff1681565b6060600460008373ffffffffffffffffffffffffffffffffffffffff1673ffffffffffffffffffffffffffffffffffffffff16815260200190815260200160002060000180548060200260200160405190810160405280929190818152602001828054801561041e57602002820191906000526020600020905b81548152602001906001019080831161040a575b50505050509050919050565b610432610ce0565b73ffffffffffffffffffffffffffffffffffffffff166104506104b2565b73ffffffffffffffffffffffffffffffffffffffff16146104a6576040517f08c379a000000000000000000000000000000000000000000000000000000000815260040161049d9061156b565b60405180910390fd5b6104b06000610ce8565b565b60008060009054906101000a900473ffffffffffffffffffffffffffffffffffffffff16905090565b6104e53382610730565b50565b600160009054906101000a900473ffffffffffffffffffffffffffffffffffffffff1681565b60035481565b60005b8151811015610625573373ffffffffffffffffffffffffffffffffffffffff1660056000848481518110610574577f4e487b7100000000000000000000000000000000000000000000000000000000600052603260045260246000fd5b6020026020010151815260200190815260200160002060009054906101000a900473ffffffffffffffffffffffffffffffffffffffff1673ffffffffffffffffffffffffffffffffffffffff1614156106125761061133838381518110610604577f4e487b7100000000000000000000000000000000000000000000000000000000600052603260045260246000fd5b6020026020010151610a7e565b5b808061061d9061178c565b915050610517565b5050565b610631610ce0565b73ffffffffffffffffffffffffffffffffffffffff1661064f6104b2565b73ffffffffffffffffffffffffffffffffffffffff16146106a5576040517f08c379a000000000000000000000000000000000000000000000000000000000815260040161069c9061156b565b60405180910390fd5b600073ffffffffffffffffffffffffffffffffffffffff168173ffffffffffffffffffffffffffffffffffffffff161415610715576040517f08c379a000000000000000000000000000000000000000000000000000000000815260040161070c9061152b565b60405180910390fd5b61071e81610ce8565b50565b61072c338284610dac565b5050565b8173ffffffffffffffffffffffffffffffffffffffff16600260009054906101000a900473ffffffffffffffffffffffffffffffffffffffff1673ffffffffffffffffffffffffffffffffffffffff16636352211e836040518263ffffffff1660e01b81526004016107a2919061158b565b60206040518083038186803b1580156107ba57600080fd5b505afa1580156107ce573d6000803e3d6000fd5b505050506040513d601f19601f820116820180604052508101906107f29190611177565b73ffffffffffffffffffffffffffffffffffffffff1614610848576040517f08c379a000000000000000000000000000000000000000000000000000000000815260040161083f9061154b565b60405180910390fd5b6000600460008473ffffffffffffffffffffffffffffffffffffffff1673ffffffffffffffffffffffffffffffffffffffff168152602001908152602001600020905080600001829080600181540180825580915050600190039060005260206000200160009091909190915055826005600084815260200190815260200160002060006101000a81548173ffffffffffffffffffffffffffffffffffffffff021916908373ffffffffffffffffffffffffffffffffffffffff160217905550600260009054906101000a900473ffffffffffffffffffffffffffffffffffffffff1673ffffffffffffffffffffffffffffffffffffffff1663095ea7b330846040518363ffffffff1660e01b815260040161096592919061146f565b600060405180830381600087803b15801561097f57600080fd5b505af1158015610993573d6000803e3d6000fd5b50505050600260009054906101000a900473ffffffffffffffffffffffffffffffffffffffff1673ffffffffffffffffffffffffffffffffffffffff166342842e0e8430856040518463ffffffff1660e01b81526004016109f693929190611438565b600060405180830381600087803b158015610a1057600080fd5b505af1158015610a24573d6000803e3d6000fd5b505050507f9e71bc8eea02a63969f509818f2dafb9254532904319f9dbda79b67bd34a5f3d8383604051610a5992919061146f565b60405180910390a160036000815480929190610a749061178c565b9190505550505050565b8173ffffffffffffffffffffffffffffffffffffffff166005600083815260200190815260200160002060009054906101000a900473ffffffffffffffffffffffffffffffffffffffff1673ffffffffffffffffffffffffffffffffffffffff1614610b1f576040517f08c379a0000000000000000000000000000000000000000000000000000000008152600401610b169061150b565b60405180910390fd5b6000600460008473ffffffffffffffffffffffffffffffffffffffff1673ffffffffffffffffffffffffffffffffffffffff1681526020019081526020016000209050600081600001805490501115610bc35780600001805480610bac577f4e487b7100000000000000000000000000000000000000000000000000000000600052603160045260246000fd5b600190038181906000526020600020016000905590555b6005600083815260200190815260200160002060006101000a81549073ffffffffffffffffffffffffffffffffffffffff0219169055600260009054906101000a900473ffffffffffffffffffffffffffffffffffffffff1673ffffffffffffffffffffffffffffffffffffffff166342842e0e3085856040518463ffffffff1660e01b8152600401610c5893929190611438565b600060405180830381600087803b158015610c7257600080fd5b505af1158015610c86573d6000803e3d6000fd5b505050507f0f5bb82176feb1b5e747e28471aa92156a04d9f3ab9f45f28e2d704232b93f758383604051610cbb92919061146f565b60405180910390a160036000815480929190610cd690611731565b9190505550505050565b600033905090565b60008060009054906101000a900473ffffffffffffffffffffffffffffffffffffffff169050816000806101000a81548173ffffffffffffffffffffffffffffffffffffffff021916908373ffffffffffffffffffffffffffffffffffffffff1602179055508173ffffffffffffffffffffffffffffffffffffffff168173ffffffffffffffffffffffffffffffffffffffff167f8be0079c531659141344cd1fd0a4f28419497f9722a3daafe3b4186f6b6457e060405160405180910390a35050565b8273ffffffffffffffffffffffffffffffffffffffff166005600083815260200190815260200160002060009054906101000a900473ffffffffffffffffffffffffffffffffffffffff1673ffffffffffffffffffffffffffffffffffffffff1614610e4d576040517f08c379a0000000000000000000000000000000000000000000000000000000008152600401610e449061150b565b60405180910390fd5b6000600460008573ffffffffffffffffffffffffffffffffffffffff1673ffffffffffffffffffffffffffffffffffffffff1681526020019081526020016000209050600081600001805490501115610ef15780600001805480610eda577f4e487b7100000000000000000000000000000000000000000000000000000000600052603160045260246000fd5b600190038181906000526020600020016000905590555b6005600083815260200190815260200160002060006101000a81549073ffffffffffffffffffffffffffffffffffffffff0219169055600260009054906101000a900473ffffffffffffffffffffffffffffffffffffffff1673ffffffffffffffffffffffffffffffffffffffff166342842e0e3085856040518463ffffffff1660e01b8152600401610f8693929190611438565b600060405180830381600087803b158015610fa057600080fd5b505af1158015610fb4573d6000803e3d6000fd5b505050507f609ef74df72c268c4ddec100f372eb57fde9d3dd13509bb1e18fea424eeb1f7a848484604051610feb93929190611438565b60405180910390a16003600081548092919061100690611731565b919050555050505050565b600061102461101f846115cb565b6115a6565b9050808382526020820190508285602086028201111561104357600080fd5b60005b8581101561107357816110598882611139565b845260208401935060208301925050600181019050611046565b5050509392505050565b600061109061108b846115f7565b6115a6565b9050828152602081018484840111156110a857600080fd5b6110b3848285611722565b509392505050565b6000813590506110ca8161195a565b92915050565b6000815190506110df8161195a565b92915050565b600082601f8301126110f657600080fd5b8135611106848260208601611011565b91505092915050565b600082601f83011261112057600080fd5b813561113084826020860161107d565b91505092915050565b60008135905061114881611971565b92915050565b60006020828403121561116057600080fd5b600061116e848285016110bb565b91505092915050565b60006020828403121561118957600080fd5b6000611197848285016110d0565b91505092915050565b600080600080608085870312156111b657600080fd5b60006111c4878288016110bb565b94505060206111d5878288016110bb565b93505060406111e687828801611139565b925050606085013567ffffffffffffffff81111561120357600080fd5b61120f8782880161110f565b91505092959194509250565b60006020828403121561122d57600080fd5b600082013567ffffffffffffffff81111561124757600080fd5b611253848285016110e5565b91505092915050565b60006020828403121561126e57600080fd5b600061127c84828501611139565b91505092915050565b6000806040838503121561129857600080fd5b60006112a685828601611139565b92505060206112b7858286016110bb565b9150509250929050565b60006112cd83836113ff565b60208301905092915050565b6112e281611672565b82525050565b60006112f382611638565b6112fd8185611650565b935061130883611628565b8060005b8381101561133957815161132088826112c1565b975061132b83611643565b92505060018101905061130c565b5085935050505092915050565b61134f81611684565b82525050565b61135e816116da565b82525050565b61136d816116fe565b82525050565b6000611380603c83611661565b915061138b82611844565b604082019050919050565b60006113a3602683611661565b91506113ae82611893565b604082019050919050565b60006113c6602383611661565b91506113d1826118e2565b604082019050919050565b60006113e9602083611661565b91506113f482611931565b602082019050919050565b611408816116d0565b82525050565b611417816116d0565b82525050565b600060208201905061143260008301846112d9565b92915050565b600060608201905061144d60008301866112d9565b61145a60208301856112d9565b611467604083018461140e565b949350505050565b600060408201905061148460008301856112d9565b611491602083018461140e565b9392505050565b600060208201905081810360008301526114b281846112e8565b905092915050565b60006020820190506114cf6000830184611346565b92915050565b60006020820190506114ea6000830184611355565b92915050565b60006020820190506115056000830184611364565b92915050565b6000602082019050818103600083015261152481611373565b9050919050565b6000602082019050818103600083015261154481611396565b9050919050565b60006020820190508181036000830152611564816113b9565b9050919050565b60006020820190508181036000830152611584816113dc565b9050919050565b60006020820190506115a0600083018461140e565b92915050565b60006115b06115c1565b90506115bc828261175b565b919050565b6000604051905090565b600067ffffffffffffffff8211156115e6576115e5611804565b5b602082029050602081019050919050565b600067ffffffffffffffff82111561161257611611611804565b5b61161b82611833565b9050602081019050919050565b6000819050602082019050919050565b600081519050919050565b6000602082019050919050565b600082825260208201905092915050565b600082825260208201905092915050565b600061167d826116b0565b9050919050565b60007fffffffff0000000000000000000000000000000000000000000000000000000082169050919050565b600073ffffffffffffffffffffffffffffffffffffffff82169050919050565b6000819050919050565b60006116e5826116ec565b9050919050565b60006116f7826116b0565b9050919050565b600061170982611710565b9050919050565b600061171b826116b0565b9050919050565b82818337600083830152505050565b600061173c826116d0565b915060008214156117505761174f6117d5565b5b600182039050919050565b61176482611833565b810181811067ffffffffffffffff8211171561178357611782611804565b5b80604052505050565b6000611797826116d0565b91507fffffffffffffffffffffffffffffffffffffffffffffffffffffffffffffffff8214156117ca576117c96117d5565b5b600182019050919050565b7f4e487b7100000000000000000000000000000000000000000000000000000000600052601160045260246000fd5b7f4e487b7100000000000000000000000000000000000000000000000000000000600052604160045260246000fd5b6000601f19601f8301169050919050565b7f4e6674205374616b696e672053797374656d3a2075736572206d75737420626560008201527f20746865206f776e6572206f6620746865207374616b6564206e667400000000602082015250565b7f4f776e61626c653a206e6577206f776e657220697320746865207a65726f206160008201527f6464726573730000000000000000000000000000000000000000000000000000602082015250565b7f75736572206d75737420626520746865206f776e6572206f662074686520746f60008201527f6b656e0000000000000000000000000000000000000000000000000000000000602082015250565b7f4f776e61626c653a2063616c6c6572206973206e6f7420746865206f776e6572600082015250565b61196381611672565b811461196e57600080fd5b50565b61197a816116d0565b811461198557600080fd5b5056fea2646970667358221220565e11a92ce39531576be98eedfa4953270eaac3144b25913d9f85b9a780f18164736f6c63430008040033",
  "linkReferences": {},
  "deployedLinkReferences": {}
}