{
  "_format": "hh-sol-artifact-1",
  "contractName": "StakingSystem",
  "sourceName": "contracts/StakeSystem.sol",
  "abi": [
    {
      "inputs": [
        {
          "internalType": "contract IERC721",
          "name": "_nft",
          "type": "address"
        },
        {
          "internalType": "contract IRewardToken",
          "name": "_rewardsToken",
          "type": "address"
        }
      ],
      "stateMutability": "nonpayable",
      "type": "constructor"
    },
    {
      "anonymous": false,
      "inputs": [
        {
          "indexed": false,
          "internalType": "bool",
          "name": "status",
          "type": "bool"
        }
      ],
      "name": "ClaimableStatusUpdated",
      "type": "event"
    },
    {
      "anonymous": false,
      "inputs": [
        {
          "indexed": true,
          "internalType": "address",
          "name": "user",
          "type": "address"
        },
        {
          "indexed": false,
          "internalType": "uint256",
          "name": "tokenId",
          "type": "uint256"
        }
      ],
      "name": "EmergencyUnstake",
      "type": "event"
    },
    {
      "anonymous": false,
      "inputs": [
        {
          "indexed": true,
          "internalType": "address",
          "name": "previousOwner",
          "type": "address"
        },
        {
          "indexed": true,
          "internalType": "address",
          "name": "newOwner",
          "type": "address"
        }
      ],
      "name": "OwnershipTransferred",
      "type": "event"
    },
    {
      "anonymous": false,
      "inputs": [
        {
          "indexed": true,
          "internalType": "address",
          "name": "user",
          "type": "address"
        },
        {
          "indexed": false,
          "internalType": "uint256",
          "name": "reward",
          "type": "uint256"
        }
      ],
      "name": "RewardPaid",
      "type": "event"
    },
    {
      "anonymous": false,
      "inputs": [
        {
          "indexed": false,
          "internalType": "address",
          "name": "owner",
          "type": "address"
        },
        {
          "indexed": false,
          "internalType": "uint256",
          "name": "amount",
          "type": "uint256"
        }
      ],
      "name": "Staked",
      "type": "event"
    },
    {
      "anonymous": false,
      "inputs": [
        {
          "indexed": false,
          "internalType": "address",
          "name": "owner",
          "type": "address"
        },
        {
          "indexed": false,
          "internalType": "uint256",
          "name": "amount",
          "type": "uint256"
        }
      ],
      "name": "Unstaked",
      "type": "event"
    },
    {
      "inputs": [
        {
          "internalType": "address",
          "name": "_user",
          "type": "address"
        }
      ],
      "name": "claimReward",
      "outputs": [],
      "stateMutability": "nonpayable",
      "type": "function"
    },
    {
      "inputs": [
        {
          "internalType": "uint256",
          "name": "_tokenId",
          "type": "uint256"
        }
      ],
      "name": "emergencyUnstake",
      "outputs": [],
      "stateMutability": "nonpayable",
      "type": "function"
    },
    {
      "inputs": [
        {
          "internalType": "address",
          "name": "_user",
          "type": "address"
        }
      ],
      "name": "getStakedTokens",
      "outputs": [
        {
          "internalType": "uint256[]",
          "name": "tokenIds",
          "type": "uint256[]"
        }
      ],
      "stateMutability": "view",
      "type": "function"
    },
    {
      "inputs": [],
      "name": "initStaking",
      "outputs": [],
      "stateMutability": "nonpayable",
      "type": "function"
    },
    {
      "inputs": [],
      "name": "nft",
      "outputs": [
        {
          "internalType": "contract IERC721",
          "name": "",
          "type": "address"
        }
      ],
      "stateMutability": "view",
      "type": "function"
    },
    {
      "inputs": [
        {
          "internalType": "address",
          "name": "",
          "type": "address"
        },
        {
          "internalType": "address",
          "name": "",
          "type": "address"
        },
        {
          "internalType": "uint256",
          "name": "",
          "type": "uint256"
        },
        {
          "internalType": "bytes",
          "name": "",
          "type": "bytes"
        }
      ],
      "name": "onERC721Received",
      "outputs": [
        {
          "internalType": "bytes4",
          "name": "",
          "type": "bytes4"
        }
      ],
      "stateMutability": "nonpayable",
      "type": "function"
    },
    {
      "inputs": [],
      "name": "owner",
      "outputs": [
        {
          "internalType": "address",
          "name": "",
          "type": "address"
        }
      ],
      "stateMutability": "view",
      "type": "function"
    },
    {
      "inputs": [],
      "name": "renounceOwnership",
      "outputs": [],
      "stateMutability": "nonpayable",
      "type": "function"
    },
    {
      "inputs": [],
      "name": "rewardsToken",
      "outputs": [
        {
          "internalType": "contract IRewardToken",
          "name": "",
          "type": "address"
        }
      ],
      "stateMutability": "view",
      "type": "function"
    },
    {
      "inputs": [
        {
          "internalType": "bool",
          "name": "_enabled",
          "type": "bool"
        }
      ],
      "name": "setTokensClaimable",
      "outputs": [],
      "stateMutability": "nonpayable",
      "type": "function"
    },
    {
      "inputs": [
        {
          "internalType": "uint256",
          "name": "tokenId",
          "type": "uint256"
        }
      ],
      "name": "stake",
      "outputs": [],
      "stateMutability": "nonpayable",
      "type": "function"
    },
    {
      "inputs": [
        {
          "internalType": "uint256[]",
          "name": "tokenIds",
          "type": "uint256[]"
        }
      ],
      "name": "stakeBatch",
      "outputs": [],
      "stateMutability": "nonpayable",
      "type": "function"
    },
    {
      "inputs": [],
      "name": "stakedTotal",
      "outputs": [
        {
          "internalType": "uint256",
          "name": "",
          "type": "uint256"
        }
      ],
      "stateMutability": "view",
      "type": "function"
    },
    {
      "inputs": [
        {
          "internalType": "address",
          "name": "",
          "type": "address"
        }
      ],
      "name": "stakers",
      "outputs": [
        {
          "internalType": "uint256",
          "name": "balance",
          "type": "uint256"
        },
        {
          "internalType": "uint256",
          "name": "rewardsReleased",
          "type": "uint256"
        }
      ],
      "stateMutability": "view",
      "type": "function"
    },
    {
      "inputs": [],
      "name": "stakingStartTime",
      "outputs": [
        {
          "internalType": "uint256",
          "name": "",
          "type": "uint256"
        }
      ],
      "stateMutability": "view",
      "type": "function"
    },
    {
      "inputs": [
        {
          "internalType": "uint256",
          "name": "",
          "type": "uint256"
        }
      ],
      "name": "tokenOwner",
      "outputs": [
        {
          "internalType": "address",
          "name": "",
          "type": "address"
        }
      ],
      "stateMutability": "view",
      "type": "function"
    },
    {
      "inputs": [],
      "name": "tokensClaimable",
      "outputs": [
        {
          "internalType": "bool",
          "name": "",
          "type": "bool"
        }
      ],
      "stateMutability": "view",
      "type": "function"
    },
    {
      "inputs": [
        {
          "internalType": "address",
          "name": "newOwner",
          "type": "address"
        }
      ],
      "name": "transferOwnership",
      "outputs": [],
      "stateMutability": "nonpayable",
      "type": "function"
    },
    {
      "inputs": [
        {
          "internalType": "uint256",
          "name": "_tokenId",
          "type": "uint256"
        }
      ],
      "name": "unstake",
      "outputs": [],
      "stateMutability": "nonpayable",
      "type": "function"
    },
    {
      "inputs": [
        {
          "internalType": "uint256[]",
          "name": "tokenIds",
          "type": "uint256[]"
        }
      ],
      "name": "unstakeBatch",
      "outputs": [],
      "stateMutability": "nonpayable",
      "type": "function"
    },
    {
      "inputs": [
        {
          "internalType": "address",
          "name": "_user",
          "type": "address"
        }
      ],
      "name": "updateReward",
      "outputs": [],
      "stateMutability": "nonpayable",
      "type": "function"
    }
  ],
  "bytecode": "0x60806040523480156200001157600080fd5b5060405162002a1838038062002a188339818101604052810190620000379190620001db565b620000576200004b620000e160201b60201c565b620000e960201b60201c565b81600260006101000a81548173ffffffffffffffffffffffffffffffffffffffff021916908373ffffffffffffffffffffffffffffffffffffffff16021790555080600160006101000a81548173ffffffffffffffffffffffffffffffffffffffff021916908373ffffffffffffffffffffffffffffffffffffffff1602179055505050620002ac565b600033905090565b60008060009054906101000a900473ffffffffffffffffffffffffffffffffffffffff169050816000806101000a81548173ffffffffffffffffffffffffffffffffffffffff021916908373ffffffffffffffffffffffffffffffffffffffff1602179055508173ffffffffffffffffffffffffffffffffffffffff168173ffffffffffffffffffffffffffffffffffffffff167f8be0079c531659141344cd1fd0a4f28419497f9722a3daafe3b4186f6b6457e060405160405180910390a35050565b600081519050620001be8162000278565b92915050565b600081519050620001d58162000292565b92915050565b60008060408385031215620001ef57600080fd5b6000620001ff85828601620001ad565b92505060206200021285828601620001c4565b9150509250929050565b6000620002298262000258565b9050919050565b60006200023d826200021c565b9050919050565b600062000251826200021c565b9050919050565b600073ffffffffffffffffffffffffffffffffffffffff82169050919050565b620002838162000230565b81146200028f57600080fd5b50565b6200029d8162000244565b8114620002a957600080fd5b50565b61275c80620002bc6000396000f3fe608060405234801561001057600080fd5b50600436106101375760003560e01c80636abfd183116100b8578063b4efa66d1161007c578063b4efa66d14610327578063d1af0c7d14610331578063d279c1911461034f578063d66692a71461036b578063e64a21f314610389578063f2fde38b146103a557610137565b80636abfd18314610294578063715018a6146102b25780638da5cb5b146102bc5780639168ae72146102da578063a694fc3a1461030b57610137565b806331f684c0116100ff57806331f684c0146101f057806347ccca021461020e578063542360fd1461022c578063632447c91461024857806363c28db11461026457610137565b8063012ce5011461013c578063150b7a02146101585780631caaa48714610188578063230f436d146101b85780632e17de78146101d4575b600080fd5b61015660048036038101906101519190611be3565b6103c1565b005b610172600480360381019061016d9190611afe565b6104bd565b60405161017f9190611ede565b60405180910390f35b6101a2600480360381019061019d9190611be3565b6104d1565b6040516101af9190611e26565b60405180910390f35b6101d260048036038101906101cd9190611b79565b610504565b005b6101ee60048036038101906101e99190611be3565b610571565b005b6101f8610587565b6040516102059190611ec3565b60405180910390f35b61021661059a565b6040516102239190611ef9565b60405180910390f35b61024660048036038101906102419190611bba565b6105c0565b005b610262600480360381019061025d9190611aac565b610690565b005b61027e60048036038101906102799190611aac565b6109c2565b60405161028b9190611ea1565b60405180910390f35b61029c610a5c565b6040516102a9919061204f565b60405180910390f35b6102ba610a62565b005b6102c4610aea565b6040516102d19190611e26565b60405180910390f35b6102f460048036038101906102ef9190611aac565b610b13565b60405161030292919061206a565b60405180910390f35b61032560048036038101906103209190611be3565b610b37565b005b61032f610b44565b005b610339610c34565b6040516103469190611f14565b60405180910390f35b61036960048036038101906103649190611aac565b610c5a565b005b610373610f7c565b604051610380919061204f565b60405180910390f35b6103a3600480360381019061039e9190611b79565b610f82565b005b6103bf60048036038101906103ba9190611aac565b6110a0565b005b3373ffffffffffffffffffffffffffffffffffffffff166006600083815260200190815260200160002060009054906101000a900473ffffffffffffffffffffffffffffffffffffffff1673ffffffffffffffffffffffffffffffffffffffff1614610462576040517f08c379a000000000000000000000000000000000000000000000000000000000815260040161045990611f4f565b60405180910390fd5b61046c3382611198565b3373ffffffffffffffffffffffffffffffffffffffff167f571394674ec9d9e81517060110f8f894ce912af2b2febc091bee0cdea68adf00826040516104b2919061204f565b60405180910390a250565b600063150b7a0260e01b9050949350505050565b60066020528060005260406000206000915054906101000a900473ffffffffffffffffffffffffffffffffffffffff1681565b60005b815181101561056d5761055a3383838151811061054d577f4e487b7100000000000000000000000000000000000000000000000000000000600052603260045260246000fd5b6020026020010151611415565b80806105659061239a565b915050610507565b5050565b61057a33610c5a565b6105843382611198565b50565b600760009054906101000a900460ff1681565b600260009054906101000a900473ffffffffffffffffffffffffffffffffffffffff1681565b6105c86117cc565b73ffffffffffffffffffffffffffffffffffffffff166105e6610aea565b73ffffffffffffffffffffffffffffffffffffffff161461063c576040517f08c379a000000000000000000000000000000000000000000000000000000000815260040161063390611fef565b60405180910390fd5b80600760006101000a81548160ff0219169083151502179055507f4a113b1b56ac87c884bce0b1715ef967c43f546e247aa746d79d92335fe9f825816040516106859190611ec3565b60405180910390a150565b6000600560008373ffffffffffffffffffffffffffffffffffffffff1673ffffffffffffffffffffffffffffffffffffffff1681526020019081526020016000209050600081600001905060005b81805490508110156109bc5760b4426106f7919061215f565b836001016000848481548110610736577f4e487b7100000000000000000000000000000000000000000000000000000000600052603260045260246000fd5b90600052602060002001548152602001908152602001600020541080156107b557506000836001016000848481548110610799577f4e487b7100000000000000000000000000000000000000000000000000000000600052603260045260246000fd5b9060005260206000200154815260200190815260200160002054115b156109a957600060b48460010160008585815481106107fd577f4e487b7100000000000000000000000000000000000000000000000000000000600052603260045260246000fd5b9060005260206000200154815260200190815260200160002054426108229190612240565b61082c91906121b5565b9050600060b4856001016000868681548110610871577f4e487b7100000000000000000000000000000000000000000000000000000000600052603260045260246000fd5b9060005260206000200154815260200190815260200160002054426108969190612240565b6108a091906123e3565b905081678ac7230489e800006108b691906121e6565b8560020160008282546108c9919061215f565b9250508190555080426108dc919061215f565b85600101600086868154811061091b577f4e487b7100000000000000000000000000000000000000000000000000000000600052603260045260246000fd5b906000526020600020015481526020019081526020016000208190555061099985600101600086868154811061097a577f4e487b7100000000000000000000000000000000000000000000000000000000600052603260045260246000fd5b90600052602060002001548152602001908152602001600020546117d4565b6109a685600201546117d4565b50505b80806109b49061239a565b9150506106de565b50505050565b6060600560008373ffffffffffffffffffffffffffffffffffffffff1673ffffffffffffffffffffffffffffffffffffffff168152602001908152602001600020600001805480602002602001604051908101604052809291908181526020018280548015610a5057602002820191906000526020600020905b815481526020019060010190808311610a3c575b50505050509050919050565b60045481565b610a6a6117cc565b73ffffffffffffffffffffffffffffffffffffffff16610a88610aea565b73ffffffffffffffffffffffffffffffffffffffff1614610ade576040517f08c379a0000000000000000000000000000000000000000000000000000000008152600401610ad590611fef565b60405180910390fd5b610ae8600061186d565b565b60008060009054906101000a900473ffffffffffffffffffffffffffffffffffffffff16905090565b60056020528060005260406000206000915090508060020154908060030154905082565b610b413382611415565b50565b610b4c6117cc565b73ffffffffffffffffffffffffffffffffffffffff16610b6a610aea565b73ffffffffffffffffffffffffffffffffffffffff1614610bc0576040517f08c379a0000000000000000000000000000000000000000000000000000000008152600401610bb790611fef565b60405180910390fd5b600760019054906101000a900460ff1615610c10576040517f08c379a0000000000000000000000000000000000000000000000000000000008152600401610c0790611f2f565b60405180910390fd5b426004819055506001600760016101000a81548160ff021916908315150217905550565b600160009054906101000a900473ffffffffffffffffffffffffffffffffffffffff1681565b60011515600760009054906101000a900460ff16151514610cb0576040517f08c379a0000000000000000000000000000000000000000000000000000000008152600401610ca79061200f565b60405180910390fd5b6000600560008373ffffffffffffffffffffffffffffffffffffffff1673ffffffffffffffffffffffffffffffffffffffff1681526020019081526020016000206002015411610d35576040517f08c379a0000000000000000000000000000000000000000000000000000000008152600401610d2c90611faf565b60405180910390fd5b600560008273ffffffffffffffffffffffffffffffffffffffff1673ffffffffffffffffffffffffffffffffffffffff16815260200190815260200160002060020154600560008373ffffffffffffffffffffffffffffffffffffffff1673ffffffffffffffffffffffffffffffffffffffff1681526020019081526020016000206003016000828254610dc9919061215f565b925050819055506000600560008373ffffffffffffffffffffffffffffffffffffffff1673ffffffffffffffffffffffffffffffffffffffff16815260200190815260200160002060020181905550600160009054906101000a900473ffffffffffffffffffffffffffffffffffffffff1673ffffffffffffffffffffffffffffffffffffffff166340c10f1982600560008573ffffffffffffffffffffffffffffffffffffffff1673ffffffffffffffffffffffffffffffffffffffff168152602001908152602001600020600201546040518363ffffffff1660e01b8152600401610eb7929190611e78565b600060405180830381600087803b158015610ed157600080fd5b505af1158015610ee5573d6000803e3d6000fd5b505050508073ffffffffffffffffffffffffffffffffffffffff167fe2403640ba68fed3a2f88b7557551d1993f84b99bb10ff833f0cf8db0c5e0486600560008473ffffffffffffffffffffffffffffffffffffffff1673ffffffffffffffffffffffffffffffffffffffff16815260200190815260200160002060020154604051610f71919061204f565b60405180910390a250565b60035481565b610f8b33610c5a565b60005b815181101561109c573373ffffffffffffffffffffffffffffffffffffffff1660066000848481518110610feb577f4e487b7100000000000000000000000000000000000000000000000000000000600052603260045260246000fd5b6020026020010151815260200190815260200160002060009054906101000a900473ffffffffffffffffffffffffffffffffffffffff1673ffffffffffffffffffffffffffffffffffffffff161415611089576110883383838151811061107b577f4e487b7100000000000000000000000000000000000000000000000000000000600052603260045260246000fd5b6020026020010151611198565b5b80806110949061239a565b915050610f8e565b5050565b6110a86117cc565b73ffffffffffffffffffffffffffffffffffffffff166110c6610aea565b73ffffffffffffffffffffffffffffffffffffffff161461111c576040517f08c379a000000000000000000000000000000000000000000000000000000000815260040161111390611fef565b60405180910390fd5b600073ffffffffffffffffffffffffffffffffffffffff168173ffffffffffffffffffffffffffffffffffffffff16141561118c576040517f08c379a000000000000000000000000000000000000000000000000000000000815260040161118390611f8f565b60405180910390fd5b6111958161186d565b50565b8173ffffffffffffffffffffffffffffffffffffffff166006600083815260200190815260200160002060009054906101000a900473ffffffffffffffffffffffffffffffffffffffff1673ffffffffffffffffffffffffffffffffffffffff1614611239576040517f08c379a000000000000000000000000000000000000000000000000000000000815260040161123090611f6f565b60405180910390fd5b6000600560008473ffffffffffffffffffffffffffffffffffffffff1673ffffffffffffffffffffffffffffffffffffffff16815260200190815260200160002090506000816000018054905011156112dd57806000018054806112c6577f4e487b7100000000000000000000000000000000000000000000000000000000600052603160045260246000fd5b600190038181906000526020600020016000905590555b6000816001016000848152602001908152602001600020819055506006600083815260200190815260200160002060006101000a81549073ffffffffffffffffffffffffffffffffffffffff0219169055600260009054906101000a900473ffffffffffffffffffffffffffffffffffffffff1673ffffffffffffffffffffffffffffffffffffffff166342842e0e3085856040518463ffffffff1660e01b815260040161138d93929190611e41565b600060405180830381600087803b1580156113a757600080fd5b505af11580156113bb573d6000803e3d6000fd5b505050507f0f5bb82176feb1b5e747e28471aa92156a04d9f3ab9f45f28e2d704232b93f7583836040516113f0929190611e78565b60405180910390a16003600081548092919061140b9061233f565b9190505550505050565b600760019054906101000a900460ff16611464576040517f08c379a000000000000000000000000000000000000000000000000000000000815260040161145b9061202f565b60405180910390fd5b8173ffffffffffffffffffffffffffffffffffffffff16600260009054906101000a900473ffffffffffffffffffffffffffffffffffffffff1673ffffffffffffffffffffffffffffffffffffffff16636352211e836040518263ffffffff1660e01b81526004016114d6919061204f565b60206040518083038186803b1580156114ee57600080fd5b505afa158015611502573d6000803e3d6000fd5b505050506040513d601f19601f820116820180604052508101906115269190611ad5565b73ffffffffffffffffffffffffffffffffffffffff161461157c576040517f08c379a000000000000000000000000000000000000000000000000000000000815260040161157390611fcf565b60405180910390fd5b6000600560008473ffffffffffffffffffffffffffffffffffffffff1673ffffffffffffffffffffffffffffffffffffffff1681526020019081526020016000209050806000018290806001815401808255809150506001900390600052602060002001600090919091909150554281600101600084815260200190815260200160002081905550826006600084815260200190815260200160002060006101000a81548173ffffffffffffffffffffffffffffffffffffffff021916908373ffffffffffffffffffffffffffffffffffffffff160217905550600260009054906101000a900473ffffffffffffffffffffffffffffffffffffffff1673ffffffffffffffffffffffffffffffffffffffff1663095ea7b330846040518363ffffffff1660e01b81526004016116b3929190611e78565b600060405180830381600087803b1580156116cd57600080fd5b505af11580156116e1573d6000803e3d6000fd5b50505050600260009054906101000a900473ffffffffffffffffffffffffffffffffffffffff1673ffffffffffffffffffffffffffffffffffffffff166342842e0e8430856040518463ffffffff1660e01b815260040161174493929190611e41565b600060405180830381600087803b15801561175e57600080fd5b505af1158015611772573d6000803e3d6000fd5b505050507f9e71bc8eea02a63969f509818f2dafb9254532904319f9dbda79b67bd34a5f3d83836040516117a7929190611e78565b60405180910390a1600360008154809291906117c29061239a565b9190505550505050565b600033905090565b61186a816040516024016117e8919061204f565b6040516020818303038152906040527ff5b1bba9000000000000000000000000000000000000000000000000000000007bffffffffffffffffffffffffffffffffffffffffffffffffffffffff19166020820180517bffffffffffffffffffffffffffffffffffffffffffffffffffffffff8381831617835250505050611931565b50565b60008060009054906101000a900473ffffffffffffffffffffffffffffffffffffffff169050816000806101000a81548173ffffffffffffffffffffffffffffffffffffffff021916908373ffffffffffffffffffffffffffffffffffffffff1602179055508173ffffffffffffffffffffffffffffffffffffffff168173ffffffffffffffffffffffffffffffffffffffff167f8be0079c531659141344cd1fd0a4f28419497f9722a3daafe3b4186f6b6457e060405160405180910390a35050565b60008151905060006a636f6e736f6c652e6c6f679050602083016000808483855afa5050505050565b600061196d611968846120b8565b612093565b9050808382526020820190508285602086028201111561198c57600080fd5b60005b858110156119bc57816119a28882611a97565b84526020840193506020830192505060018101905061198f565b5050509392505050565b60006119d96119d4846120e4565b612093565b9050828152602081018484840111156119f157600080fd5b6119fc848285612330565b509392505050565b600081359050611a13816126e1565b92915050565b600081519050611a28816126e1565b92915050565b600082601f830112611a3f57600080fd5b8135611a4f84826020860161195a565b91505092915050565b600081359050611a67816126f8565b92915050565b600082601f830112611a7e57600080fd5b8135611a8e8482602086016119c6565b91505092915050565b600081359050611aa68161270f565b92915050565b600060208284031215611abe57600080fd5b6000611acc84828501611a04565b91505092915050565b600060208284031215611ae757600080fd5b6000611af584828501611a19565b91505092915050565b60008060008060808587031215611b1457600080fd5b6000611b2287828801611a04565b9450506020611b3387828801611a04565b9350506040611b4487828801611a97565b925050606085013567ffffffffffffffff811115611b6157600080fd5b611b6d87828801611a6d565b91505092959194509250565b600060208284031215611b8b57600080fd5b600082013567ffffffffffffffff811115611ba557600080fd5b611bb184828501611a2e565b91505092915050565b600060208284031215611bcc57600080fd5b6000611bda84828501611a58565b91505092915050565b600060208284031215611bf557600080fd5b6000611c0384828501611a97565b91505092915050565b6000611c188383611e08565b60208301905092915050565b611c2d81612274565b82525050565b6000611c3e82612125565b611c48818561213d565b9350611c5383612115565b8060005b83811015611c84578151611c6b8882611c0c565b9750611c7683612130565b925050600181019050611c57565b5085935050505092915050565b611c9a81612286565b82525050565b611ca981612292565b82525050565b611cb8816122e8565b82525050565b611cc78161230c565b82525050565b6000611cda60138361214e565b9150611ce5826124b2565b602082019050919050565b6000611cfd602d8361214e565b9150611d08826124db565b604082019050919050565b6000611d20603c8361214e565b9150611d2b8261252a565b604082019050919050565b6000611d4360268361214e565b9150611d4e82612579565b604082019050919050565b6000611d66600d8361214e565b9150611d71826125c8565b602082019050919050565b6000611d8960238361214e565b9150611d94826125f1565b604082019050919050565b6000611dac60208361214e565b9150611db782612640565b602082019050919050565b6000611dcf601d8361214e565b9150611dda82612669565b602082019050919050565b6000611df2602b8361214e565b9150611dfd82612692565b604082019050919050565b611e11816122de565b82525050565b611e20816122de565b82525050565b6000602082019050611e3b6000830184611c24565b92915050565b6000606082019050611e566000830186611c24565b611e636020830185611c24565b611e706040830184611e17565b949350505050565b6000604082019050611e8d6000830185611c24565b611e9a6020830184611e17565b9392505050565b60006020820190508181036000830152611ebb8184611c33565b905092915050565b6000602082019050611ed86000830184611c91565b92915050565b6000602082019050611ef36000830184611ca0565b92915050565b6000602082019050611f0e6000830184611caf565b92915050565b6000602082019050611f296000830184611cbe565b92915050565b60006020820190508181036000830152611f4881611ccd565b9050919050565b60006020820190508181036000830152611f6881611cf0565b9050919050565b60006020820190508181036000830152611f8881611d13565b9050919050565b60006020820190508181036000830152611fa881611d36565b9050919050565b60006020820190508181036000830152611fc881611d59565b9050919050565b60006020820190508181036000830152611fe881611d7c565b9050919050565b6000602082019050818103600083015261200881611d9f565b9050919050565b6000602082019050818103600083015261202881611dc2565b9050919050565b6000602082019050818103600083015261204881611de5565b9050919050565b60006020820190506120646000830184611e17565b92915050565b600060408201905061207f6000830185611e17565b61208c6020830184611e17565b9392505050565b600061209d6120ae565b90506120a98282612369565b919050565b6000604051905090565b600067ffffffffffffffff8211156120d3576120d2612472565b5b602082029050602081019050919050565b600067ffffffffffffffff8211156120ff576120fe612472565b5b612108826124a1565b9050602081019050919050565b6000819050602082019050919050565b600081519050919050565b6000602082019050919050565b600082825260208201905092915050565b600082825260208201905092915050565b600061216a826122de565b9150612175836122de565b9250827fffffffffffffffffffffffffffffffffffffffffffffffffffffffffffffffff038211156121aa576121a9612414565b5b828201905092915050565b60006121c0826122de565b91506121cb836122de565b9250826121db576121da612443565b5b828204905092915050565b60006121f1826122de565b91506121fc836122de565b9250817fffffffffffffffffffffffffffffffffffffffffffffffffffffffffffffffff048311821515161561223557612234612414565b5b828202905092915050565b600061224b826122de565b9150612256836122de565b92508282101561226957612268612414565b5b828203905092915050565b600061227f826122be565b9050919050565b60008115159050919050565b60007fffffffff0000000000000000000000000000000000000000000000000000000082169050919050565b600073ffffffffffffffffffffffffffffffffffffffff82169050919050565b6000819050919050565b60006122f3826122fa565b9050919050565b6000612305826122be565b9050919050565b60006123178261231e565b9050919050565b6000612329826122be565b9050919050565b82818337600083830152505050565b600061234a826122de565b9150600082141561235e5761235d612414565b5b600182039050919050565b612372826124a1565b810181811067ffffffffffffffff8211171561239157612390612472565b5b80604052505050565b60006123a5826122de565b91507fffffffffffffffffffffffffffffffffffffffffffffffffffffffffffffffff8214156123d8576123d7612414565b5b600182019050919050565b60006123ee826122de565b91506123f9836122de565b92508261240957612408612443565b5b828206905092915050565b7f4e487b7100000000000000000000000000000000000000000000000000000000600052601160045260246000fd5b7f4e487b7100000000000000000000000000000000000000000000000000000000600052601260045260246000fd5b7f4e487b7100000000000000000000000000000000000000000000000000000000600052604160045260246000fd5b6000601f19601f8301169050919050565b7f416c726561647920696e697469616c6973656400000000000000000000000000600082015250565b7f6e66742e5f756e7374616b653a2053656e646572206d7573742068617665207360008201527f74616b656420746f6b656e494400000000000000000000000000000000000000602082015250565b7f4e6674205374616b696e672053797374656d3a2075736572206d75737420626560008201527f20746865206f776e6572206f6620746865207374616b6564206e667400000000602082015250565b7f4f776e61626c653a206e6577206f776e657220697320746865207a65726f206160008201527f6464726573730000000000000000000000000000000000000000000000000000602082015250565b7f3020726577617264732079657400000000000000000000000000000000000000600082015250565b7f75736572206d75737420626520746865206f776e6572206f662074686520746f60008201527f6b656e0000000000000000000000000000000000000000000000000000000000602082015250565b7f4f776e61626c653a2063616c6c6572206973206e6f7420746865206f776e6572600082015250565b7f546f6b656e732063616e6e6e6f7420626520636c61696d656420796574000000600082015250565b7f5374616b696e672053797374656d3a20746865207374616b696e67206861732060008201527f6e6f742073746172746564000000000000000000000000000000000000000000602082015250565b6126ea81612274565b81146126f557600080fd5b50565b61270181612286565b811461270c57600080fd5b50565b612718816122de565b811461272357600080fd5b5056fea2646970667358221220ec3ea793a5d787c80dca26250024a7d1156c66fb6b2685f340b82061360c347e64736f6c63430008040033",
  "linkReferences": {},
  "deployedLinkReferences": {}
}