{
  "_format": "hh-sol-artifact-1",
  "contractName": "StakingSystem",
  "sourceName": "contracts/StakeSystem.sol",
  "abi": [
    {
      "inputs": [
        {
          "internalType": "contract IERC721",
          "name": "_nft",
          "type": "address"
        }
      ],
      "stateMutability": "nonpayable",
      "type": "constructor"
    },
    {
      "anonymous": false,
      "inputs": [
        {
          "indexed": false,
          "internalType": "bool",
          "name": "status",
          "type": "bool"
        }
      ],
      "name": "ClaimableStatusUpdated",
      "type": "event"
    },
    {
      "anonymous": false,
      "inputs": [
        {
          "indexed": true,
          "internalType": "address",
          "name": "user",
          "type": "address"
        },
        {
          "indexed": false,
          "internalType": "uint256",
          "name": "tokenId",
          "type": "uint256"
        }
      ],
      "name": "EmergencyUnstake",
      "type": "event"
    },
    {
      "anonymous": false,
      "inputs": [
        {
          "indexed": true,
          "internalType": "address",
          "name": "previousOwner",
          "type": "address"
        },
        {
          "indexed": true,
          "internalType": "address",
          "name": "newOwner",
          "type": "address"
        }
      ],
      "name": "OwnershipTransferred",
      "type": "event"
    },
    {
      "anonymous": false,
      "inputs": [
        {
          "indexed": true,
          "internalType": "address",
          "name": "user",
          "type": "address"
        },
        {
          "indexed": false,
          "internalType": "uint256",
          "name": "reward",
          "type": "uint256"
        }
      ],
      "name": "RewardPaid",
      "type": "event"
    },
    {
      "anonymous": false,
      "inputs": [
        {
          "indexed": false,
          "internalType": "address",
          "name": "owner",
          "type": "address"
        },
        {
          "indexed": false,
          "internalType": "uint256",
          "name": "amount",
          "type": "uint256"
        }
      ],
      "name": "Staked",
      "type": "event"
    },
    {
      "anonymous": false,
      "inputs": [
        {
          "indexed": false,
          "internalType": "address",
          "name": "owner",
          "type": "address"
        },
        {
          "indexed": false,
          "internalType": "uint256",
          "name": "amount",
          "type": "uint256"
        }
      ],
      "name": "Unstaked",
      "type": "event"
    },
    {
      "inputs": [
        {
          "internalType": "uint256",
          "name": "_tokenId",
          "type": "uint256"
        }
      ],
      "name": "emergencyUnstake",
      "outputs": [],
      "stateMutability": "nonpayable",
      "type": "function"
    },
    {
      "inputs": [
        {
          "internalType": "address",
          "name": "_user",
          "type": "address"
        }
      ],
      "name": "getStakedTokens",
      "outputs": [
        {
          "internalType": "uint256[]",
          "name": "tokenIds",
          "type": "uint256[]"
        }
      ],
      "stateMutability": "view",
      "type": "function"
    },
    {
      "inputs": [],
      "name": "nft",
      "outputs": [
        {
          "internalType": "contract IERC721",
          "name": "",
          "type": "address"
        }
      ],
      "stateMutability": "view",
      "type": "function"
    },
    {
      "inputs": [
        {
          "internalType": "address",
          "name": "",
          "type": "address"
        },
        {
          "internalType": "address",
          "name": "",
          "type": "address"
        },
        {
          "internalType": "uint256",
          "name": "",
          "type": "uint256"
        },
        {
          "internalType": "bytes",
          "name": "",
          "type": "bytes"
        }
      ],
      "name": "onERC721Received",
      "outputs": [
        {
          "internalType": "bytes4",
          "name": "",
          "type": "bytes4"
        }
      ],
      "stateMutability": "nonpayable",
      "type": "function"
    },
    {
      "inputs": [],
      "name": "owner",
      "outputs": [
        {
          "internalType": "address",
          "name": "",
          "type": "address"
        }
      ],
      "stateMutability": "view",
      "type": "function"
    },
    {
      "inputs": [],
      "name": "renounceOwnership",
      "outputs": [],
      "stateMutability": "nonpayable",
      "type": "function"
    },
    {
      "inputs": [],
      "name": "rewardsToken",
      "outputs": [
        {
          "internalType": "contract IRewardToken",
          "name": "",
          "type": "address"
        }
      ],
      "stateMutability": "view",
      "type": "function"
    },
    {
      "inputs": [
        {
          "internalType": "bool",
          "name": "_enabled",
          "type": "bool"
        }
      ],
      "name": "setTokensClaimable",
      "outputs": [],
      "stateMutability": "nonpayable",
      "type": "function"
    },
    {
      "inputs": [
        {
          "internalType": "uint256",
          "name": "tokenId",
          "type": "uint256"
        }
      ],
      "name": "stake",
      "outputs": [],
      "stateMutability": "nonpayable",
      "type": "function"
    },
    {
      "inputs": [
        {
          "internalType": "uint256[]",
          "name": "tokenIds",
          "type": "uint256[]"
        }
      ],
      "name": "stakeBatch",
      "outputs": [],
      "stateMutability": "nonpayable",
      "type": "function"
    },
    {
      "inputs": [],
      "name": "stakedTotal",
      "outputs": [
        {
          "internalType": "uint256",
          "name": "",
          "type": "uint256"
        }
      ],
      "stateMutability": "view",
      "type": "function"
    },
    {
      "inputs": [
        {
          "internalType": "uint256",
          "name": "",
          "type": "uint256"
        }
      ],
      "name": "tokenOwner",
      "outputs": [
        {
          "internalType": "address",
          "name": "",
          "type": "address"
        }
      ],
      "stateMutability": "view",
      "type": "function"
    },
    {
      "inputs": [
        {
          "internalType": "address",
          "name": "newOwner",
          "type": "address"
        }
      ],
      "name": "transferOwnership",
      "outputs": [],
      "stateMutability": "nonpayable",
      "type": "function"
    },
    {
      "inputs": [
        {
          "internalType": "uint256",
          "name": "_tokenId",
          "type": "uint256"
        }
      ],
      "name": "unstake",
      "outputs": [],
      "stateMutability": "nonpayable",
      "type": "function"
    },
    {
      "inputs": [
        {
          "internalType": "uint256[]",
          "name": "tokenIds",
          "type": "uint256[]"
        }
      ],
      "name": "unstakeBatch",
      "outputs": [],
      "stateMutability": "nonpayable",
      "type": "function"
    }
  ],
  "bytecode": "0x60806040523480156200001157600080fd5b5060405162001c2438038062001c24833981810160405281019062000037919062000182565b620000576200004b6200009f60201b60201c565b620000a760201b60201c565b80600260006101000a81548173ffffffffffffffffffffffffffffffffffffffff021916908373ffffffffffffffffffffffffffffffffffffffff1602179055505062000210565b600033905090565b60008060009054906101000a900473ffffffffffffffffffffffffffffffffffffffff169050816000806101000a81548173ffffffffffffffffffffffffffffffffffffffff021916908373ffffffffffffffffffffffffffffffffffffffff1602179055508173ffffffffffffffffffffffffffffffffffffffff168173ffffffffffffffffffffffffffffffffffffffff167f8be0079c531659141344cd1fd0a4f28419497f9722a3daafe3b4186f6b6457e060405160405180910390a35050565b6000815190506200017c81620001f6565b92915050565b6000602082840312156200019557600080fd5b6000620001a5848285016200016b565b91505092915050565b6000620001bb82620001d6565b9050919050565b6000620001cf82620001ae565b9050919050565b600073ffffffffffffffffffffffffffffffffffffffff82169050919050565b6200020181620001c2565b81146200020d57600080fd5b50565b611a0480620002206000396000f3fe608060405234801561001057600080fd5b50600436106100f55760003560e01c806363c28db111610097578063d1af0c7d11610066578063d1af0c7d1461025c578063d66692a71461027a578063e64a21f314610298578063f2fde38b146102b4576100f5565b806363c28db1146101e8578063715018a6146102185780638da5cb5b14610222578063a694fc3a14610240576100f5565b8063230f436d116100d3578063230f436d146101765780632e17de781461019257806347ccca02146101ae578063542360fd146101cc576100f5565b8063012ce501146100fa578063150b7a02146101165780631caaa48714610146575b600080fd5b610114600480360381019061010f91906111ff565b6102d0565b005b610130600480360381019061012b919061111a565b6103cc565b60405161013d919061146e565b60405180910390f35b610160600480360381019061015b91906111ff565b6103e0565b60405161016d91906113b6565b60405180910390f35b610190600480360381019061018b9190611195565b610413565b005b6101ac60048036038101906101a791906111ff565b610480565b005b6101b661048d565b6040516101c39190611489565b60405180910390f35b6101e660048036038101906101e191906111d6565b6104b3565b005b61020260048036038101906101fd91906110c8565b610569565b60405161020f9190611431565b60405180910390f35b610220610603565b005b61022a61068b565b60405161023791906113b6565b60405180910390f35b61025a600480360381019061025591906111ff565b6106b4565b005b6102646106c1565b60405161027191906114a4565b60405180910390f35b6102826106e7565b60405161028f919061155f565b60405180910390f35b6102b260048036038101906102ad9190611195565b6106ed565b005b6102ce60048036038101906102c991906110c8565b610802565b005b3373ffffffffffffffffffffffffffffffffffffffff166005600083815260200190815260200160002060009054906101000a900473ffffffffffffffffffffffffffffffffffffffff1673ffffffffffffffffffffffffffffffffffffffff1614610371576040517f08c379a0000000000000000000000000000000000000000000000000000000008152600401610368906114bf565b60405180910390fd5b61037b33826108fa565b3373ffffffffffffffffffffffffffffffffffffffff167f571394674ec9d9e81517060110f8f894ce912af2b2febc091bee0cdea68adf00826040516103c1919061155f565b60405180910390a250565b600063150b7a0260e01b9050949350505050565b60056020528060005260406000206000915054906101000a900473ffffffffffffffffffffffffffffffffffffffff1681565b60005b815181101561047c576104693383838151811061045c577f4e487b7100000000000000000000000000000000000000000000000000000000600052603260045260246000fd5b6020026020010151610b5c565b80806104749061176c565b915050610416565b5050565b61048a33826108fa565b50565b600260009054906101000a900473ffffffffffffffffffffffffffffffffffffffff1681565b6104bb610eaa565b73ffffffffffffffffffffffffffffffffffffffff166104d961068b565b73ffffffffffffffffffffffffffffffffffffffff161461052f576040517f08c379a00000000000000000000000000000000000000000000000000000000081526004016105269061153f565b60405180910390fd5b7f4a113b1b56ac87c884bce0b1715ef967c43f546e247aa746d79d92335fe9f8258160405161055e9190611453565b60405180910390a150565b6060600460008373ffffffffffffffffffffffffffffffffffffffff1673ffffffffffffffffffffffffffffffffffffffff1681526020019081526020016000206000018054806020026020016040519081016040528092919081815260200182805480156105f757602002820191906000526020600020905b8154815260200190600101908083116105e3575b50505050509050919050565b61060b610eaa565b73ffffffffffffffffffffffffffffffffffffffff1661062961068b565b73ffffffffffffffffffffffffffffffffffffffff161461067f576040517f08c379a00000000000000000000000000000000000000000000000000000000081526004016106769061153f565b60405180910390fd5b6106896000610eb2565b565b60008060009054906101000a900473ffffffffffffffffffffffffffffffffffffffff16905090565b6106be3382610b5c565b50565b600160009054906101000a900473ffffffffffffffffffffffffffffffffffffffff1681565b60035481565b60005b81518110156107fe573373ffffffffffffffffffffffffffffffffffffffff166005600084848151811061074d577f4e487b7100000000000000000000000000000000000000000000000000000000600052603260045260246000fd5b6020026020010151815260200190815260200160002060009054906101000a900473ffffffffffffffffffffffffffffffffffffffff1673ffffffffffffffffffffffffffffffffffffffff1614156107eb576107ea338383815181106107dd577f4e487b7100000000000000000000000000000000000000000000000000000000600052603260045260246000fd5b60200260200101516108fa565b5b80806107f69061176c565b9150506106f0565b5050565b61080a610eaa565b73ffffffffffffffffffffffffffffffffffffffff1661082861068b565b73ffffffffffffffffffffffffffffffffffffffff161461087e576040517f08c379a00000000000000000000000000000000000000000000000000000000081526004016108759061153f565b60405180910390fd5b600073ffffffffffffffffffffffffffffffffffffffff168173ffffffffffffffffffffffffffffffffffffffff1614156108ee576040517f08c379a00000000000000000000000000000000000000000000000000000000081526004016108e5906114ff565b60405180910390fd5b6108f781610eb2565b50565b8173ffffffffffffffffffffffffffffffffffffffff166005600083815260200190815260200160002060009054906101000a900473ffffffffffffffffffffffffffffffffffffffff1673ffffffffffffffffffffffffffffffffffffffff161461099b576040517f08c379a0000000000000000000000000000000000000000000000000000000008152600401610992906114df565b60405180910390fd5b6000600460008473ffffffffffffffffffffffffffffffffffffffff1673ffffffffffffffffffffffffffffffffffffffff1681526020019081526020016000209050600081600001805490501115610a3f5780600001805480610a28577f4e487b7100000000000000000000000000000000000000000000000000000000600052603160045260246000fd5b600190038181906000526020600020016000905590555b6005600083815260200190815260200160002060006101000a81549073ffffffffffffffffffffffffffffffffffffffff0219169055600260009054906101000a900473ffffffffffffffffffffffffffffffffffffffff1673ffffffffffffffffffffffffffffffffffffffff166342842e0e3085856040518463ffffffff1660e01b8152600401610ad4939291906113d1565b600060405180830381600087803b158015610aee57600080fd5b505af1158015610b02573d6000803e3d6000fd5b505050507f0f5bb82176feb1b5e747e28471aa92156a04d9f3ab9f45f28e2d704232b93f758383604051610b37929190611408565b60405180910390a160036000815480929190610b5290611711565b9190505550505050565b8173ffffffffffffffffffffffffffffffffffffffff16600260009054906101000a900473ffffffffffffffffffffffffffffffffffffffff1673ffffffffffffffffffffffffffffffffffffffff16636352211e836040518263ffffffff1660e01b8152600401610bce919061155f565b60206040518083038186803b158015610be657600080fd5b505afa158015610bfa573d6000803e3d6000fd5b505050506040513d601f19601f82011682018060405250810190610c1e91906110f1565b73ffffffffffffffffffffffffffffffffffffffff1614610c74576040517f08c379a0000000000000000000000000000000000000000000000000000000008152600401610c6b9061151f565b60405180910390fd5b6000600460008473ffffffffffffffffffffffffffffffffffffffff1673ffffffffffffffffffffffffffffffffffffffff168152602001908152602001600020905080600001829080600181540180825580915050600190039060005260206000200160009091909190915055826005600084815260200190815260200160002060006101000a81548173ffffffffffffffffffffffffffffffffffffffff021916908373ffffffffffffffffffffffffffffffffffffffff160217905550600260009054906101000a900473ffffffffffffffffffffffffffffffffffffffff1673ffffffffffffffffffffffffffffffffffffffff1663095ea7b330846040518363ffffffff1660e01b8152600401610d91929190611408565b600060405180830381600087803b158015610dab57600080fd5b505af1158015610dbf573d6000803e3d6000fd5b50505050600260009054906101000a900473ffffffffffffffffffffffffffffffffffffffff1673ffffffffffffffffffffffffffffffffffffffff166342842e0e8430856040518463ffffffff1660e01b8152600401610e22939291906113d1565b600060405180830381600087803b158015610e3c57600080fd5b505af1158015610e50573d6000803e3d6000fd5b505050507f9e71bc8eea02a63969f509818f2dafb9254532904319f9dbda79b67bd34a5f3d8383604051610e85929190611408565b60405180910390a160036000815480929190610ea09061176c565b9190505550505050565b600033905090565b60008060009054906101000a900473ffffffffffffffffffffffffffffffffffffffff169050816000806101000a81548173ffffffffffffffffffffffffffffffffffffffff021916908373ffffffffffffffffffffffffffffffffffffffff1602179055508173ffffffffffffffffffffffffffffffffffffffff168173ffffffffffffffffffffffffffffffffffffffff167f8be0079c531659141344cd1fd0a4f28419497f9722a3daafe3b4186f6b6457e060405160405180910390a35050565b6000610f89610f848461159f565b61157a565b90508083825260208201905082856020860282011115610fa857600080fd5b60005b85811015610fd85781610fbe88826110b3565b845260208401935060208301925050600181019050610fab565b5050509392505050565b6000610ff5610ff0846115cb565b61157a565b90508281526020810184848401111561100d57600080fd5b611018848285611702565b509392505050565b60008135905061102f81611989565b92915050565b60008151905061104481611989565b92915050565b600082601f83011261105b57600080fd5b813561106b848260208601610f76565b91505092915050565b600081359050611083816119a0565b92915050565b600082601f83011261109a57600080fd5b81356110aa848260208601610fe2565b91505092915050565b6000813590506110c2816119b7565b92915050565b6000602082840312156110da57600080fd5b60006110e884828501611020565b91505092915050565b60006020828403121561110357600080fd5b600061111184828501611035565b91505092915050565b6000806000806080858703121561113057600080fd5b600061113e87828801611020565b945050602061114f87828801611020565b9350506040611160878288016110b3565b925050606085013567ffffffffffffffff81111561117d57600080fd5b61118987828801611089565b91505092959194509250565b6000602082840312156111a757600080fd5b600082013567ffffffffffffffff8111156111c157600080fd5b6111cd8482850161104a565b91505092915050565b6000602082840312156111e857600080fd5b60006111f684828501611074565b91505092915050565b60006020828403121561121157600080fd5b600061121f848285016110b3565b91505092915050565b60006112348383611398565b60208301905092915050565b61124981611646565b82525050565b600061125a8261160c565b6112648185611624565b935061126f836115fc565b8060005b838110156112a05781516112878882611228565b975061129283611617565b925050600181019050611273565b5085935050505092915050565b6112b681611658565b82525050565b6112c581611664565b82525050565b6112d4816116ba565b82525050565b6112e3816116de565b82525050565b60006112f6602d83611635565b915061130182611824565b604082019050919050565b6000611319603c83611635565b915061132482611873565b604082019050919050565b600061133c602683611635565b9150611347826118c2565b604082019050919050565b600061135f602383611635565b915061136a82611911565b604082019050919050565b6000611382602083611635565b915061138d82611960565b602082019050919050565b6113a1816116b0565b82525050565b6113b0816116b0565b82525050565b60006020820190506113cb6000830184611240565b92915050565b60006060820190506113e66000830186611240565b6113f36020830185611240565b61140060408301846113a7565b949350505050565b600060408201905061141d6000830185611240565b61142a60208301846113a7565b9392505050565b6000602082019050818103600083015261144b818461124f565b905092915050565b600060208201905061146860008301846112ad565b92915050565b600060208201905061148360008301846112bc565b92915050565b600060208201905061149e60008301846112cb565b92915050565b60006020820190506114b960008301846112da565b92915050565b600060208201905081810360008301526114d8816112e9565b9050919050565b600060208201905081810360008301526114f88161130c565b9050919050565b600060208201905081810360008301526115188161132f565b9050919050565b6000602082019050818103600083015261153881611352565b9050919050565b6000602082019050818103600083015261155881611375565b9050919050565b600060208201905061157460008301846113a7565b92915050565b6000611584611595565b9050611590828261173b565b919050565b6000604051905090565b600067ffffffffffffffff8211156115ba576115b96117e4565b5b602082029050602081019050919050565b600067ffffffffffffffff8211156115e6576115e56117e4565b5b6115ef82611813565b9050602081019050919050565b6000819050602082019050919050565b600081519050919050565b6000602082019050919050565b600082825260208201905092915050565b600082825260208201905092915050565b600061165182611690565b9050919050565b60008115159050919050565b60007fffffffff0000000000000000000000000000000000000000000000000000000082169050919050565b600073ffffffffffffffffffffffffffffffffffffffff82169050919050565b6000819050919050565b60006116c5826116cc565b9050919050565b60006116d782611690565b9050919050565b60006116e9826116f0565b9050919050565b60006116fb82611690565b9050919050565b82818337600083830152505050565b600061171c826116b0565b915060008214156117305761172f6117b5565b5b600182039050919050565b61174482611813565b810181811067ffffffffffffffff82111715611763576117626117e4565b5b80604052505050565b6000611777826116b0565b91507fffffffffffffffffffffffffffffffffffffffffffffffffffffffffffffffff8214156117aa576117a96117b5565b5b600182019050919050565b7f4e487b7100000000000000000000000000000000000000000000000000000000600052601160045260246000fd5b7f4e487b7100000000000000000000000000000000000000000000000000000000600052604160045260246000fd5b6000601f19601f8301169050919050565b7f6e66742e5f756e7374616b653a2053656e646572206d7573742068617665207360008201527f74616b656420746f6b656e494400000000000000000000000000000000000000602082015250565b7f4e6674205374616b696e672053797374656d3a2075736572206d75737420626560008201527f20746865206f776e6572206f6620746865207374616b6564206e667400000000602082015250565b7f4f776e61626c653a206e6577206f776e657220697320746865207a65726f206160008201527f6464726573730000000000000000000000000000000000000000000000000000602082015250565b7f75736572206d75737420626520746865206f776e6572206f662074686520746f60008201527f6b656e0000000000000000000000000000000000000000000000000000000000602082015250565b7f4f776e61626c653a2063616c6c6572206973206e6f7420746865206f776e6572600082015250565b61199281611646565b811461199d57600080fd5b50565b6119a981611658565b81146119b457600080fd5b50565b6119c0816116b0565b81146119cb57600080fd5b5056fea2646970667358221220a874a4aaeaaad361e481c4744d6698cdf55f6aa3e07419de68f2bcef027d67d064736f6c63430008040033",
  "linkReferences": {},
  "deployedLinkReferences": {}
}